{
  "_format": "hh-sol-artifact-1",
  "contractName": "TimeTravellersToken",
  "sourceName": "contracts/TimeTravellersToken.sol",
  "abi": [
    {
      "inputs": [],
      "stateMutability": "nonpayable",
      "type": "constructor"
    },
    {
      "anonymous": false,
      "inputs": [
        {
          "indexed": true,
          "internalType": "address",
          "name": "owner",
          "type": "address"
        },
        {
          "indexed": true,
          "internalType": "address",
          "name": "spender",
          "type": "address"
        },
        {
          "indexed": false,
          "internalType": "uint256",
          "name": "value",
          "type": "uint256"
        }
      ],
      "name": "Approval",
      "type": "event"
    },
    {
      "anonymous": false,
      "inputs": [
        {
          "indexed": true,
          "internalType": "address",
          "name": "from",
          "type": "address"
        },
        {
          "indexed": true,
          "internalType": "address",
          "name": "to",
          "type": "address"
        },
        {
          "indexed": false,
          "internalType": "uint256",
          "name": "value",
          "type": "uint256"
        }
      ],
      "name": "Transfer",
      "type": "event"
    },
    {
      "inputs": [],
      "name": "MAX_TOKEN_CAP",
      "outputs": [
        {
          "internalType": "uint256",
          "name": "",
          "type": "uint256"
        }
      ],
      "stateMutability": "view",
      "type": "function"
    },
    {
      "inputs": [],
      "name": "PRICE",
      "outputs": [
        {
          "internalType": "uint256",
          "name": "",
          "type": "uint256"
        }
      ],
      "stateMutability": "view",
      "type": "function"
    },
    {
      "inputs": [
        {
          "internalType": "address",
          "name": "owner",
          "type": "address"
        },
        {
          "internalType": "address",
          "name": "spender",
          "type": "address"
        }
      ],
      "name": "allowance",
      "outputs": [
        {
          "internalType": "uint256",
          "name": "",
          "type": "uint256"
        }
      ],
      "stateMutability": "view",
      "type": "function"
    },
    {
      "inputs": [
        {
          "internalType": "address",
          "name": "spender",
          "type": "address"
        },
        {
          "internalType": "uint256",
          "name": "amount",
          "type": "uint256"
        }
      ],
      "name": "approve",
      "outputs": [
        {
          "internalType": "bool",
          "name": "",
          "type": "bool"
        }
      ],
      "stateMutability": "nonpayable",
      "type": "function"
    },
    {
      "inputs": [
        {
          "internalType": "address",
          "name": "account",
          "type": "address"
        }
      ],
      "name": "balanceOf",
      "outputs": [
        {
          "internalType": "uint256",
          "name": "",
          "type": "uint256"
        }
      ],
      "stateMutability": "view",
      "type": "function"
    },
    {
      "inputs": [],
      "name": "currentSupply",
      "outputs": [
        {
          "internalType": "uint256",
          "name": "",
          "type": "uint256"
        }
      ],
      "stateMutability": "view",
      "type": "function"
    },
    {
      "inputs": [],
      "name": "decimals",
      "outputs": [
        {
          "internalType": "uint8",
          "name": "",
          "type": "uint8"
        }
      ],
      "stateMutability": "view",
      "type": "function"
    },
    {
      "inputs": [
        {
          "internalType": "address",
          "name": "spender",
          "type": "address"
        },
        {
          "internalType": "uint256",
          "name": "subtractedValue",
          "type": "uint256"
        }
      ],
      "name": "decreaseAllowance",
      "outputs": [
        {
          "internalType": "bool",
          "name": "",
          "type": "bool"
        }
      ],
      "stateMutability": "nonpayable",
      "type": "function"
    },
    {
      "inputs": [
        {
          "internalType": "address",
          "name": "spender",
          "type": "address"
        },
        {
          "internalType": "uint256",
          "name": "addedValue",
          "type": "uint256"
        }
      ],
      "name": "increaseAllowance",
      "outputs": [
        {
          "internalType": "bool",
          "name": "",
          "type": "bool"
        }
      ],
      "stateMutability": "nonpayable",
      "type": "function"
    },
    {
      "inputs": [
        {
          "internalType": "address",
          "name": "to",
          "type": "address"
        },
        {
          "internalType": "uint256",
          "name": "amount",
          "type": "uint256"
        }
      ],
      "name": "mint",
      "outputs": [],
      "stateMutability": "payable",
      "type": "function"
    },
    {
      "inputs": [],
      "name": "name",
      "outputs": [
        {
          "internalType": "string",
          "name": "",
          "type": "string"
        }
      ],
      "stateMutability": "view",
      "type": "function"
    },
    {
      "inputs": [],
      "name": "symbol",
      "outputs": [
        {
          "internalType": "string",
          "name": "",
          "type": "string"
        }
      ],
      "stateMutability": "view",
      "type": "function"
    },
    {
      "inputs": [],
      "name": "totalSupply",
      "outputs": [
        {
          "internalType": "uint256",
          "name": "",
          "type": "uint256"
        }
      ],
      "stateMutability": "view",
      "type": "function"
    },
    {
      "inputs": [
        {
          "internalType": "address",
          "name": "to",
          "type": "address"
        },
        {
          "internalType": "uint256",
          "name": "amount",
          "type": "uint256"
        }
      ],
      "name": "transfer",
      "outputs": [
        {
          "internalType": "bool",
          "name": "",
          "type": "bool"
        }
      ],
      "stateMutability": "nonpayable",
      "type": "function"
    },
    {
      "inputs": [
        {
          "internalType": "address",
          "name": "from",
          "type": "address"
        },
        {
          "internalType": "address",
          "name": "to",
          "type": "address"
        },
        {
          "internalType": "uint256",
          "name": "amount",
          "type": "uint256"
        }
      ],
      "name": "transferFrom",
      "outputs": [
        {
          "internalType": "bool",
          "name": "",
          "type": "bool"
        }
      ],
      "stateMutability": "nonpayable",
      "type": "function"
    },
    {
      "inputs": [],
      "name": "withdraw",
      "outputs": [],
      "stateMutability": "nonpayable",
      "type": "function"
    }
  ],
  "bytecode": "0x6080604052686c6b935b8bbd4000006006553480156200001e57600080fd5b506040518060400160405280601581526020017f54696d652d54726176656c6c6572732d546f6b656e00000000000000000000008152506040518060400160405280600381526020017f54545400000000000000000000000000000000000000000000000000000000008152508160039080519060200190620000a39291906200029a565b508060049080519060200190620000bc9291906200029a565b5050506001600581905550620000e233683635c9adc5dea000006200011760201b60201c565b620001117324011e9598937bfbfb27fd4d8e9b8fda42fa239f683635c9adc5dea000006200011760201b60201c565b620004f6565b600073ffffffffffffffffffffffffffffffffffffffff168273ffffffffffffffffffffffffffffffffffffffff1614156200018a576040517f08c379a0000000000000000000000000000000000000000000000000000000008152600401620001819062000382565b60405180910390fd5b6200019e600083836200029060201b60201c565b8060026000828254620001b29190620003d2565b92505081905550806000808473ffffffffffffffffffffffffffffffffffffffff1673ffffffffffffffffffffffffffffffffffffffff1681526020019081526020016000206000828254620002099190620003d2565b925050819055508173ffffffffffffffffffffffffffffffffffffffff16600073ffffffffffffffffffffffffffffffffffffffff167fddf252ad1be2c89b69c2b068fc378daa952ba7f163c4a11628f55a4df523b3ef83604051620002709190620003a4565b60405180910390a36200028c600083836200029560201b60201c565b5050565b505050565b505050565b828054620002a89062000439565b90600052602060002090601f016020900481019282620002cc576000855562000318565b82601f10620002e757805160ff191683800117855562000318565b8280016001018555821562000318579182015b8281111562000317578251825591602001919060010190620002fa565b5b5090506200032791906200032b565b5090565b5b80821115620003465760008160009055506001016200032c565b5090565b600062000359601f83620003c1565b91506200036682620004cd565b602082019050919050565b6200037c816200042f565b82525050565b600060208201905081810360008301526200039d816200034a565b9050919050565b6000602082019050620003bb600083018462000371565b92915050565b600082825260208201905092915050565b6000620003df826200042f565b9150620003ec836200042f565b9250827fffffffffffffffffffffffffffffffffffffffffffffffffffffffffffffffff038211156200042457620004236200046f565b5b828201905092915050565b6000819050919050565b600060028204905060018216806200045257607f821691505b602082108114156200046957620004686200049e565b5b50919050565b7f4e487b7100000000000000000000000000000000000000000000000000000000600052601160045260246000fd5b7f4e487b7100000000000000000000000000000000000000000000000000000000600052602260045260246000fd5b7f45524332303a206d696e7420746f20746865207a65726f206164647265737300600082015250565b611cf280620005066000396000f3fe6080604052600436106100f35760003560e01c806370a082311161008a57806395d89b411161005957806395d89b4114610321578063a457c2d71461034c578063a9059cbb14610389578063dd62ed3e146103c6576100f3565b806370a0823114610263578063771282f6146102a05780637fe864b8146102cb5780638d859f3e146102f6576100f3565b8063313ce567116100c6578063313ce567146101c857806339509351146101f35780633ccfd60b1461023057806340c10f1914610247576100f3565b806306fdde03146100f8578063095ea7b31461012357806318160ddd1461016057806323b872dd1461018b575b600080fd5b34801561010457600080fd5b5061010d610403565b60405161011a9190611561565b60405180910390f35b34801561012f57600080fd5b5061014a600480360381019061014591906112a1565b610495565b6040516101579190611546565b60405180910390f35b34801561016c57600080fd5b506101756104b8565b6040516101829190611723565b60405180910390f35b34801561019757600080fd5b506101b260048036038101906101ad919061124e565b6104c2565b6040516101bf9190611546565b60405180910390f35b3480156101d457600080fd5b506101dd6104f1565b6040516101ea919061173e565b60405180910390f35b3480156101ff57600080fd5b5061021a600480360381019061021591906112a1565b6104fa565b6040516102279190611546565b60405180910390f35b34801561023c57600080fd5b506102456105a4565b005b610261600480360381019061025c91906112a1565b6107af565b005b34801561026f57600080fd5b5061028a600480360381019061028591906111e1565b6108e1565b6040516102979190611723565b60405180910390f35b3480156102ac57600080fd5b506102b5610929565b6040516102c29190611723565b60405180910390f35b3480156102d757600080fd5b506102e061092f565b6040516102ed9190611723565b60405180910390f35b34801561030257600080fd5b5061030b61093d565b6040516103189190611723565b60405180910390f35b34801561032d57600080fd5b50610336610947565b6040516103439190611561565b60405180910390f35b34801561035857600080fd5b50610373600480360381019061036e91906112a1565b6109d9565b6040516103809190611546565b60405180910390f35b34801561039557600080fd5b506103b060048036038101906103ab91906112a1565b610ac3565b6040516103bd9190611546565b60405180910390f35b3480156103d257600080fd5b506103ed60048036038101906103e8919061120e565b610ae6565b6040516103fa9190611723565b60405180910390f35b606060038054610412906118ec565b80601f016020809104026020016040519081016040528092919081815260200182805461043e906118ec565b801561048b5780601f106104605761010080835404028352916020019161048b565b820191906000526020600020905b81548152906001019060200180831161046e57829003601f168201915b5050505050905090565b6000806104a0610b6d565b90506104ad818585610b75565b600191505092915050565b6000600254905090565b6000806104cd610b6d565b90506104da858285610d40565b6104e5858585610dcc565b60019150509392505050565b60006012905090565b600080610505610b6d565b9050610599818585600160008673ffffffffffffffffffffffffffffffffffffffff1673ffffffffffffffffffffffffffffffffffffffff16815260200190815260200160002060008973ffffffffffffffffffffffffffffffffffffffff1673ffffffffffffffffffffffffffffffffffffffff168152602001908152602001600020546105949190611780565b610b75565b600191505092915050565b600260055414156105ea576040517f08c379a00000000000000000000000000000000000000000000000000000000081526004016105e1906116c3565b60405180910390fd5b60026005819055506000600760003373ffffffffffffffffffffffffffffffffffffffff1673ffffffffffffffffffffffffffffffffffffffff1681526020019081526020016000205411610674576040517f08c379a000000000000000000000000000000000000000000000000000000000815260040161066b906115a3565b60405180910390fd5b60003373ffffffffffffffffffffffffffffffffffffffff16600760003373ffffffffffffffffffffffffffffffffffffffff1673ffffffffffffffffffffffffffffffffffffffff168152602001908152602001600020546040516106d990611531565b60006040518083038185875af1925050503d8060008114610716576040519150601f19603f3d011682016040523d82523d6000602084013e61071b565b606091505b505090506000600760003373ffffffffffffffffffffffffffffffffffffffff1673ffffffffffffffffffffffffffffffffffffffff16815260200190815260200160002081905550806107a4576040517f08c379a000000000000000000000000000000000000000000000000000000000815260040161079b90611663565b60405180910390fd5b506001600581905550565b6509184e72a000816107c191906117d6565b341015610803576040517f08c379a00000000000000000000000000000000000000000000000000000000081526004016107fa906115c3565b60405180910390fd5b60006509184e72a0008261081791906117d6565b905080346108259190611830565b600760003373ffffffffffffffffffffffffffffffffffffffff1673ffffffffffffffffffffffffffffffffffffffff168152602001908152602001600020819055506000826006600082825461087c9190611780565b925050819055905069021e19e0c9bab24000008111156108d1576040517f08c379a00000000000000000000000000000000000000000000000000000000081526004016108c8906116a3565b60405180910390fd5b6108db848461104d565b50505050565b60008060008373ffffffffffffffffffffffffffffffffffffffff1673ffffffffffffffffffffffffffffffffffffffff168152602001908152602001600020549050919050565b60065481565b69021e19e0c9bab240000081565b6509184e72a00081565b606060048054610956906118ec565b80601f0160208091040260200160405190810160405280929190818152602001828054610982906118ec565b80156109cf5780601f106109a4576101008083540402835291602001916109cf565b820191906000526020600020905b8154815290600101906020018083116109b257829003601f168201915b5050505050905090565b6000806109e4610b6d565b90506000600160008373ffffffffffffffffffffffffffffffffffffffff1673ffffffffffffffffffffffffffffffffffffffff16815260200190815260200160002060008673ffffffffffffffffffffffffffffffffffffffff1673ffffffffffffffffffffffffffffffffffffffff16815260200190815260200160002054905083811015610aaa576040517f08c379a0000000000000000000000000000000000000000000000000000000008152600401610aa1906116e3565b60405180910390fd5b610ab78286868403610b75565b60019250505092915050565b600080610ace610b6d565b9050610adb818585610dcc565b600191505092915050565b6000600160008473ffffffffffffffffffffffffffffffffffffffff1673ffffffffffffffffffffffffffffffffffffffff16815260200190815260200160002060008373ffffffffffffffffffffffffffffffffffffffff1673ffffffffffffffffffffffffffffffffffffffff16815260200190815260200160002054905092915050565b600033905090565b600073ffffffffffffffffffffffffffffffffffffffff168373ffffffffffffffffffffffffffffffffffffffff161415610be5576040517f08c379a0000000000000000000000000000000000000000000000000000000008152600401610bdc90611683565b60405180910390fd5b600073ffffffffffffffffffffffffffffffffffffffff168273ffffffffffffffffffffffffffffffffffffffff161415610c55576040517f08c379a0000000000000000000000000000000000000000000000000000000008152600401610c4c906115e3565b60405180910390fd5b80600160008573ffffffffffffffffffffffffffffffffffffffff1673ffffffffffffffffffffffffffffffffffffffff16815260200190815260200160002060008473ffffffffffffffffffffffffffffffffffffffff1673ffffffffffffffffffffffffffffffffffffffff168152602001908152602001600020819055508173ffffffffffffffffffffffffffffffffffffffff168373ffffffffffffffffffffffffffffffffffffffff167f8c5be1e5ebec7d5bd14f71427d1e84f3dd0314c0f7b2291e5b200ac8c7c3b92583604051610d339190611723565b60405180910390a3505050565b6000610d4c8484610ae6565b90507fffffffffffffffffffffffffffffffffffffffffffffffffffffffffffffffff8114610dc65781811015610db8576040517f08c379a0000000000000000000000000000000000000000000000000000000008152600401610daf90611603565b60405180910390fd5b610dc58484848403610b75565b5b50505050565b600073ffffffffffffffffffffffffffffffffffffffff168373ffffffffffffffffffffffffffffffffffffffff161415610e3c576040517f08c379a0000000000000000000000000000000000000000000000000000000008152600401610e3390611643565b60405180910390fd5b600073ffffffffffffffffffffffffffffffffffffffff168273ffffffffffffffffffffffffffffffffffffffff161415610eac576040517f08c379a0000000000000000000000000000000000000000000000000000000008152600401610ea390611583565b60405180910390fd5b610eb78383836111ad565b60008060008573ffffffffffffffffffffffffffffffffffffffff1673ffffffffffffffffffffffffffffffffffffffff16815260200190815260200160002054905081811015610f3d576040517f08c379a0000000000000000000000000000000000000000000000000000000008152600401610f3490611623565b60405180910390fd5b8181036000808673ffffffffffffffffffffffffffffffffffffffff1673ffffffffffffffffffffffffffffffffffffffff16815260200190815260200160002081905550816000808573ffffffffffffffffffffffffffffffffffffffff1673ffffffffffffffffffffffffffffffffffffffff1681526020019081526020016000206000828254610fd09190611780565b925050819055508273ffffffffffffffffffffffffffffffffffffffff168473ffffffffffffffffffffffffffffffffffffffff167fddf252ad1be2c89b69c2b068fc378daa952ba7f163c4a11628f55a4df523b3ef846040516110349190611723565b60405180910390a36110478484846111b2565b50505050565b600073ffffffffffffffffffffffffffffffffffffffff168273ffffffffffffffffffffffffffffffffffffffff1614156110bd576040517f08c379a00000000000000000000000000000000000000000000000000000000081526004016110b490611703565b60405180910390fd5b6110c9600083836111ad565b80600260008282546110db9190611780565b92505081905550806000808473ffffffffffffffffffffffffffffffffffffffff1673ffffffffffffffffffffffffffffffffffffffff16815260200190815260200160002060008282546111309190611780565b925050819055508173ffffffffffffffffffffffffffffffffffffffff16600073ffffffffffffffffffffffffffffffffffffffff167fddf252ad1be2c89b69c2b068fc378daa952ba7f163c4a11628f55a4df523b3ef836040516111959190611723565b60405180910390a36111a9600083836111b2565b5050565b505050565b505050565b6000813590506111c681611c8e565b92915050565b6000813590506111db81611ca5565b92915050565b6000602082840312156111f7576111f661197c565b5b6000611205848285016111b7565b91505092915050565b600080604083850312156112255761122461197c565b5b6000611233858286016111b7565b9250506020611244858286016111b7565b9150509250929050565b6000806000606084860312156112675761126661197c565b5b6000611275868287016111b7565b9350506020611286868287016111b7565b9250506040611297868287016111cc565b9150509250925092565b600080604083850312156112b8576112b761197c565b5b60006112c6858286016111b7565b92505060206112d7858286016111cc565b9150509250929050565b6112ea81611876565b82525050565b60006112fb82611759565b611305818561176f565b93506113158185602086016118b9565b61131e81611981565b840191505092915050565b600061133660238361176f565b915061134182611992565b604082019050919050565b600061135960198361176f565b9150611364826119e1565b602082019050919050565b600061137c601b8361176f565b915061138782611a0a565b602082019050919050565b600061139f60228361176f565b91506113aa82611a33565b604082019050919050565b60006113c2601d8361176f565b91506113cd82611a82565b602082019050919050565b60006113e560268361176f565b91506113f082611aab565b604082019050919050565b600061140860258361176f565b915061141382611afa565b604082019050919050565b600061142b60128361176f565b915061143682611b49565b602082019050919050565b600061144e600083611764565b915061145982611b72565b600082019050919050565b600061147160248361176f565b915061147c82611b75565b604082019050919050565b600061149460148361176f565b915061149f82611bc4565b602082019050919050565b60006114b7601f8361176f565b91506114c282611bed565b602082019050919050565b60006114da60258361176f565b91506114e582611c16565b604082019050919050565b60006114fd601f8361176f565b915061150882611c65565b602082019050919050565b61151c816118a2565b82525050565b61152b816118ac565b82525050565b600061153c82611441565b9150819050919050565b600060208201905061155b60008301846112e1565b92915050565b6000602082019050818103600083015261157b81846112f0565b905092915050565b6000602082019050818103600083015261159c81611329565b9050919050565b600060208201905081810360008301526115bc8161134c565b9050919050565b600060208201905081810360008301526115dc8161136f565b9050919050565b600060208201905081810360008301526115fc81611392565b9050919050565b6000602082019050818103600083015261161c816113b5565b9050919050565b6000602082019050818103600083015261163c816113d8565b9050919050565b6000602082019050818103600083015261165c816113fb565b9050919050565b6000602082019050818103600083015261167c8161141e565b9050919050565b6000602082019050818103600083015261169c81611464565b9050919050565b600060208201905081810360008301526116bc81611487565b9050919050565b600060208201905081810360008301526116dc816114aa565b9050919050565b600060208201905081810360008301526116fc816114cd565b9050919050565b6000602082019050818103600083015261171c816114f0565b9050919050565b60006020820190506117386000830184611513565b92915050565b60006020820190506117536000830184611522565b92915050565b600081519050919050565b600081905092915050565b600082825260208201905092915050565b600061178b826118a2565b9150611796836118a2565b9250827fffffffffffffffffffffffffffffffffffffffffffffffffffffffffffffffff038211156117cb576117ca61191e565b5b828201905092915050565b60006117e1826118a2565b91506117ec836118a2565b9250817fffffffffffffffffffffffffffffffffffffffffffffffffffffffffffffffff04831182151516156118255761182461191e565b5b828202905092915050565b600061183b826118a2565b9150611846836118a2565b9250828210156118595761185861191e565b5b828203905092915050565b600061186f82611882565b9050919050565b60008115159050919050565b600073ffffffffffffffffffffffffffffffffffffffff82169050919050565b6000819050919050565b600060ff82169050919050565b60005b838110156118d75780820151818401526020810190506118bc565b838111156118e6576000848401525b50505050565b6000600282049050600182168061190457607f821691505b602082108114156119185761191761194d565b5b50919050565b7f4e487b7100000000000000000000000000000000000000000000000000000000600052601160045260246000fd5b7f4e487b7100000000000000000000000000000000000000000000000000000000600052602260045260246000fd5b600080fd5b6000601f19601f8301169050919050565b7f45524332303a207472616e7366657220746f20746865207a65726f206164647260008201527f6573730000000000000000000000000000000000000000000000000000000000602082015250565b7f596f7520646f6e2774206861766520616e79206368616e676500000000000000600082015250565b7f596f75206469646e742073656e6420656e6f7567682065746865720000000000600082015250565b7f45524332303a20617070726f766520746f20746865207a65726f20616464726560008201527f7373000000000000000000000000000000000000000000000000000000000000602082015250565b7f45524332303a20696e73756666696369656e7420616c6c6f77616e6365000000600082015250565b7f45524332303a207472616e7366657220616d6f756e742065786365656473206260008201527f616c616e63650000000000000000000000000000000000000000000000000000602082015250565b7f45524332303a207472616e736665722066726f6d20746865207a65726f20616460008201527f6472657373000000000000000000000000000000000000000000000000000000602082015250565b7f5472616e73616374696f6e206661696c65640000000000000000000000000000600082015250565b50565b7f45524332303a20617070726f76652066726f6d20746865207a65726f2061646460008201527f7265737300000000000000000000000000000000000000000000000000000000602082015250565b7f457863656564696e67206d617820737570706c79000000000000000000000000600082015250565b7f5265656e7472616e637947756172643a207265656e7472616e742063616c6c00600082015250565b7f45524332303a2064656372656173656420616c6c6f77616e63652062656c6f7760008201527f207a65726f000000000000000000000000000000000000000000000000000000602082015250565b7f45524332303a206d696e7420746f20746865207a65726f206164647265737300600082015250565b611c9781611864565b8114611ca257600080fd5b50565b611cae816118a2565b8114611cb957600080fd5b5056fea26469706673582212209f111f43cdccb475f79733cbd7ad4099ec7513dfc86b2243607a4c359eb6464d64736f6c63430008070033",
  "linkReferences": {},
  "deployedLinkReferences": {}
}