{
  "_format": "hh-sol-artifact-1",
  "contractName": "TimeTravellersNFT",
  "sourceName": "contracts/TimeTravellersNFT.sol",
  "abi": [
    {
      "inputs": [],
      "stateMutability": "nonpayable",
      "type": "constructor"
    },
    {
      "anonymous": false,
      "inputs": [
        {
          "indexed": true,
          "internalType": "address",
          "name": "owner",
          "type": "address"
        },
        {
          "indexed": true,
          "internalType": "address",
          "name": "approved",
          "type": "address"
        },
        {
          "indexed": true,
          "internalType": "uint256",
          "name": "tokenId",
          "type": "uint256"
        }
      ],
      "name": "Approval",
      "type": "event"
    },
    {
      "anonymous": false,
      "inputs": [
        {
          "indexed": true,
          "internalType": "address",
          "name": "owner",
          "type": "address"
        },
        {
          "indexed": true,
          "internalType": "address",
          "name": "operator",
          "type": "address"
        },
        {
          "indexed": false,
          "internalType": "bool",
          "name": "approved",
          "type": "bool"
        }
      ],
      "name": "ApprovalForAll",
      "type": "event"
    },
    {
      "anonymous": false,
      "inputs": [
        {
          "indexed": true,
          "internalType": "bytes32",
          "name": "role",
          "type": "bytes32"
        },
        {
          "indexed": true,
          "internalType": "bytes32",
          "name": "previousAdminRole",
          "type": "bytes32"
        },
        {
          "indexed": true,
          "internalType": "bytes32",
          "name": "newAdminRole",
          "type": "bytes32"
        }
      ],
      "name": "RoleAdminChanged",
      "type": "event"
    },
    {
      "anonymous": false,
      "inputs": [
        {
          "indexed": true,
          "internalType": "bytes32",
          "name": "role",
          "type": "bytes32"
        },
        {
          "indexed": true,
          "internalType": "address",
          "name": "account",
          "type": "address"
        },
        {
          "indexed": true,
          "internalType": "address",
          "name": "sender",
          "type": "address"
        }
      ],
      "name": "RoleGranted",
      "type": "event"
    },
    {
      "anonymous": false,
      "inputs": [
        {
          "indexed": true,
          "internalType": "bytes32",
          "name": "role",
          "type": "bytes32"
        },
        {
          "indexed": true,
          "internalType": "address",
          "name": "account",
          "type": "address"
        },
        {
          "indexed": true,
          "internalType": "address",
          "name": "sender",
          "type": "address"
        }
      ],
      "name": "RoleRevoked",
      "type": "event"
    },
    {
      "anonymous": false,
      "inputs": [
        {
          "indexed": true,
          "internalType": "uint256",
          "name": "currentId",
          "type": "uint256"
        },
        {
          "indexed": false,
          "internalType": "string",
          "name": "tokenURI",
          "type": "string"
        },
        {
          "indexed": true,
          "internalType": "address",
          "name": "minter",
          "type": "address"
        }
      ],
      "name": "TokenCreated",
      "type": "event"
    },
    {
      "anonymous": false,
      "inputs": [
        {
          "indexed": true,
          "internalType": "address",
          "name": "from",
          "type": "address"
        },
        {
          "indexed": true,
          "internalType": "address",
          "name": "to",
          "type": "address"
        },
        {
          "indexed": true,
          "internalType": "uint256",
          "name": "tokenId",
          "type": "uint256"
        }
      ],
      "name": "Transfer",
      "type": "event"
    },
    {
      "inputs": [],
      "name": "DEFAULT_ADMIN_ROLE",
      "outputs": [
        {
          "internalType": "bytes32",
          "name": "",
          "type": "bytes32"
        }
      ],
      "stateMutability": "view",
      "type": "function"
    },
    {
      "inputs": [
        {
          "internalType": "uint16",
          "name": "",
          "type": "uint16"
        }
      ],
      "name": "IdToTweet",
      "outputs": [
        {
          "internalType": "uint16",
          "name": "_tokenID",
          "type": "uint16"
        },
        {
          "internalType": "string",
          "name": "_tokenURI",
          "type": "string"
        },
        {
          "internalType": "address",
          "name": "owner",
          "type": "address"
        }
      ],
      "stateMutability": "view",
      "type": "function"
    },
    {
      "inputs": [],
      "name": "MINTER_ROLE",
      "outputs": [
        {
          "internalType": "bytes32",
          "name": "",
          "type": "bytes32"
        }
      ],
      "stateMutability": "view",
      "type": "function"
    },
    {
      "inputs": [],
      "name": "URI_SETTER_ROLE",
      "outputs": [
        {
          "internalType": "bytes32",
          "name": "",
          "type": "bytes32"
        }
      ],
      "stateMutability": "view",
      "type": "function"
    },
    {
      "inputs": [
        {
          "internalType": "address",
          "name": "to",
          "type": "address"
        },
        {
          "internalType": "uint256",
          "name": "tokenId",
          "type": "uint256"
        }
      ],
      "name": "approve",
      "outputs": [],
      "stateMutability": "nonpayable",
      "type": "function"
    },
    {
      "inputs": [
        {
          "internalType": "address",
          "name": "owner",
          "type": "address"
        }
      ],
      "name": "balanceOf",
      "outputs": [
        {
          "internalType": "uint256",
          "name": "",
          "type": "uint256"
        }
      ],
      "stateMutability": "view",
      "type": "function"
    },
    {
      "inputs": [],
      "name": "getAllMintedTokensURI",
      "outputs": [
        {
          "components": [
            {
              "internalType": "uint16",
              "name": "_tokenID",
              "type": "uint16"
            },
            {
              "internalType": "string",
              "name": "_tokenURI",
              "type": "string"
            },
            {
              "internalType": "address",
              "name": "owner",
              "type": "address"
            }
          ],
          "internalType": "struct TimeTravellersNFT.Tweet[]",
          "name": "",
          "type": "tuple[]"
        }
      ],
      "stateMutability": "view",
      "type": "function"
    },
    {
      "inputs": [
        {
          "internalType": "uint256",
          "name": "tokenId",
          "type": "uint256"
        }
      ],
      "name": "getApproved",
      "outputs": [
        {
          "internalType": "address",
          "name": "",
          "type": "address"
        }
      ],
      "stateMutability": "view",
      "type": "function"
    },
    {
      "inputs": [
        {
          "internalType": "bytes32",
          "name": "role",
          "type": "bytes32"
        }
      ],
      "name": "getRoleAdmin",
      "outputs": [
        {
          "internalType": "bytes32",
          "name": "",
          "type": "bytes32"
        }
      ],
      "stateMutability": "view",
      "type": "function"
    },
    {
      "inputs": [
        {
          "internalType": "bytes32",
          "name": "role",
          "type": "bytes32"
        },
        {
          "internalType": "address",
          "name": "account",
          "type": "address"
        }
      ],
      "name": "grantRole",
      "outputs": [],
      "stateMutability": "nonpayable",
      "type": "function"
    },
    {
      "inputs": [
        {
          "internalType": "bytes32",
          "name": "role",
          "type": "bytes32"
        },
        {
          "internalType": "address",
          "name": "account",
          "type": "address"
        }
      ],
      "name": "hasRole",
      "outputs": [
        {
          "internalType": "bool",
          "name": "",
          "type": "bool"
        }
      ],
      "stateMutability": "view",
      "type": "function"
    },
    {
      "inputs": [
        {
          "internalType": "address",
          "name": "owner",
          "type": "address"
        },
        {
          "internalType": "address",
          "name": "operator",
          "type": "address"
        }
      ],
      "name": "isApprovedForAll",
      "outputs": [
        {
          "internalType": "bool",
          "name": "",
          "type": "bool"
        }
      ],
      "stateMutability": "view",
      "type": "function"
    },
    {
      "inputs": [
        {
          "internalType": "address",
          "name": "_account",
          "type": "address"
        },
        {
          "internalType": "string",
          "name": "_tokenURI",
          "type": "string"
        }
      ],
      "name": "mintTweet",
      "outputs": [
        {
          "internalType": "uint256",
          "name": "",
          "type": "uint256"
        }
      ],
      "stateMutability": "nonpayable",
      "type": "function"
    },
    {
      "inputs": [],
      "name": "name",
      "outputs": [
        {
          "internalType": "string",
          "name": "",
          "type": "string"
        }
      ],
      "stateMutability": "view",
      "type": "function"
    },
    {
      "inputs": [
        {
          "internalType": "uint256",
          "name": "tokenId",
          "type": "uint256"
        }
      ],
      "name": "ownerOf",
      "outputs": [
        {
          "internalType": "address",
          "name": "",
          "type": "address"
        }
      ],
      "stateMutability": "view",
      "type": "function"
    },
    {
      "inputs": [
        {
          "internalType": "bytes32",
          "name": "role",
          "type": "bytes32"
        },
        {
          "internalType": "address",
          "name": "account",
          "type": "address"
        }
      ],
      "name": "renounceRole",
      "outputs": [],
      "stateMutability": "nonpayable",
      "type": "function"
    },
    {
      "inputs": [
        {
          "internalType": "bytes32",
          "name": "role",
          "type": "bytes32"
        },
        {
          "internalType": "address",
          "name": "account",
          "type": "address"
        }
      ],
      "name": "revokeRole",
      "outputs": [],
      "stateMutability": "nonpayable",
      "type": "function"
    },
    {
      "inputs": [
        {
          "internalType": "address",
          "name": "from",
          "type": "address"
        },
        {
          "internalType": "address",
          "name": "to",
          "type": "address"
        },
        {
          "internalType": "uint256",
          "name": "tokenId",
          "type": "uint256"
        }
      ],
      "name": "safeTransferFrom",
      "outputs": [],
      "stateMutability": "nonpayable",
      "type": "function"
    },
    {
      "inputs": [
        {
          "internalType": "address",
          "name": "from",
          "type": "address"
        },
        {
          "internalType": "address",
          "name": "to",
          "type": "address"
        },
        {
          "internalType": "uint256",
          "name": "tokenId",
          "type": "uint256"
        },
        {
          "internalType": "bytes",
          "name": "_data",
          "type": "bytes"
        }
      ],
      "name": "safeTransferFrom",
      "outputs": [],
      "stateMutability": "nonpayable",
      "type": "function"
    },
    {
      "inputs": [
        {
          "internalType": "address",
          "name": "operator",
          "type": "address"
        },
        {
          "internalType": "bool",
          "name": "approved",
          "type": "bool"
        }
      ],
      "name": "setApprovalForAll",
      "outputs": [],
      "stateMutability": "nonpayable",
      "type": "function"
    },
    {
      "inputs": [
        {
          "internalType": "bytes4",
          "name": "interfaceId",
          "type": "bytes4"
        }
      ],
      "name": "supportsInterface",
      "outputs": [
        {
          "internalType": "bool",
          "name": "",
          "type": "bool"
        }
      ],
      "stateMutability": "view",
      "type": "function"
    },
    {
      "inputs": [],
      "name": "symbol",
      "outputs": [
        {
          "internalType": "string",
          "name": "",
          "type": "string"
        }
      ],
      "stateMutability": "view",
      "type": "function"
    },
    {
      "inputs": [
        {
          "internalType": "uint256",
          "name": "tokenId",
          "type": "uint256"
        }
      ],
      "name": "tokenURI",
      "outputs": [
        {
          "internalType": "string",
          "name": "",
          "type": "string"
        }
      ],
      "stateMutability": "view",
      "type": "function"
    },
    {
      "inputs": [
        {
          "internalType": "address",
          "name": "from",
          "type": "address"
        },
        {
          "internalType": "address",
          "name": "to",
          "type": "address"
        },
        {
          "internalType": "uint256",
          "name": "tokenId",
          "type": "uint256"
        }
      ],
      "name": "transferFrom",
      "outputs": [],
      "stateMutability": "nonpayable",
      "type": "function"
    }
  ],
  "bytecode": "0x60806040523480156200001157600080fd5b506040518060400160405280601381526020017f54696d652d54726176656c6c6572732d4e4654000000000000000000000000008152506040518060400160405280600381526020017f54544e000000000000000000000000000000000000000000000000000000000081525081600090805190602001906200009692919062000296565b508060019080519060200190620000af92919062000296565b505050620000c76000801b336200013160201b60201c565b620000f97f9f2df0fed2c77648de5860a4cc508cd0818c85b8b8a1ab4ceeef8d981c8956a6336200013160201b60201c565b6200012b7f7804d923f43a17d325d77e781528e0793b2edd9890ab45fc64efd7b4b427744c336200013160201b60201c565b620003ab565b6200014382826200022360201b60201c565b6200021f5760016007600084815260200190815260200160002060000160008373ffffffffffffffffffffffffffffffffffffffff1673ffffffffffffffffffffffffffffffffffffffff16815260200190815260200160002060006101000a81548160ff021916908315150217905550620001c46200028e60201b60201c565b73ffffffffffffffffffffffffffffffffffffffff168173ffffffffffffffffffffffffffffffffffffffff16837f2f8788117e7eff1d82e926ec794901d17c78024a50270940304540a733656f0d60405160405180910390a45b5050565b60006007600084815260200190815260200160002060000160008373ffffffffffffffffffffffffffffffffffffffff1673ffffffffffffffffffffffffffffffffffffffff16815260200190815260200160002060009054906101000a900460ff16905092915050565b600033905090565b828054620002a49062000346565b90600052602060002090601f016020900481019282620002c8576000855562000314565b82601f10620002e357805160ff191683800117855562000314565b8280016001018555821562000314579182015b8281111562000313578251825591602001919060010190620002f6565b5b50905062000323919062000327565b5090565b5b808211156200034257600081600090555060010162000328565b5090565b600060028204905060018216806200035f57607f821691505b602082108114156200037657620003756200037c565b5b50919050565b7f4e487b7100000000000000000000000000000000000000000000000000000000600052602260045260246000fd5b613efe80620003bb6000396000f3fe608060405234801561001057600080fd5b50600436106101585760003560e01c806370a08231116100c3578063b88d4fde1161007c578063b88d4fde146103ff578063c87b56dd1461041b578063d53913931461044b578063d547741f14610469578063df08607114610485578063e985e9c5146104a357610158565b806370a08231146103295780637f3457101461035957806391d148541461037757806395d89b41146103a7578063a217fddf146103c5578063a22cb465146103e357610158565b80632f2ff15d116101155780632f2ff15d1461024357806336568abe1461025f5780633ddc9b661461027b57806342842e0e146102ad578063510a1cba146102c95780636352211e146102f957610158565b806301ffc9a71461015d57806306fdde031461018d578063081812fc146101ab578063095ea7b3146101db57806323b872dd146101f7578063248a9ca314610213575b600080fd5b61017760048036038101906101729190612a57565b6104d3565b60405161018491906130cc565b60405180910390f35b6101956104e5565b6040516101a29190613102565b60405180910390f35b6101c560048036038101906101c09190612ade565b610577565b6040516101d29190613043565b60405180910390f35b6101f560048036038101906101f091906129aa565b6105fc565b005b610211600480360381019061020c9190612838565b610714565b005b61022d600480360381019061022891906129ea565b610774565b60405161023a91906130e7565b60405180910390f35b61025d60048036038101906102589190612a17565b610794565b005b61027960048036038101906102749190612a17565b6107bd565b005b61029560048036038101906102909190612ab1565b610840565b6040516102a493929190613364565b60405180910390f35b6102c760048036038101906102c29190612838565b610920565b005b6102e360048036038101906102de919061294e565b610940565b6040516102f091906133a2565b60405180910390f35b610313600480360381019061030e9190612ade565b610ae4565b6040516103209190613043565b60405180910390f35b610343600480360381019061033e91906127cb565b610b96565b60405161035091906133a2565b60405180910390f35b610361610c4e565b60405161036e91906130e7565b60405180910390f35b610391600480360381019061038c9190612a17565b610c72565b60405161039e91906130cc565b60405180910390f35b6103af610cdd565b6040516103bc9190613102565b60405180910390f35b6103cd610d6f565b6040516103da91906130e7565b60405180910390f35b6103fd60048036038101906103f8919061290e565b610d76565b005b6104196004803603810190610414919061288b565b610d8c565b005b61043560048036038101906104309190612ade565b610dee565b6040516104429190613102565b60405180910390f35b610453610f40565b60405161046091906130e7565b60405180910390f35b610483600480360381019061047e9190612a17565b610f64565b005b61048d610f8d565b60405161049a91906130aa565b60405180910390f35b6104bd60048036038101906104b891906127f8565b61117b565b6040516104ca91906130cc565b60405180910390f35b60006104de8261120f565b9050919050565b6060600080546104f4906136de565b80601f0160208091040260200160405190810160405280929190818152602001828054610520906136de565b801561056d5780601f106105425761010080835404028352916020019161056d565b820191906000526020600020905b81548152906001019060200180831161055057829003601f168201915b5050505050905090565b600061058282611289565b6105c1576040517f08c379a00000000000000000000000000000000000000000000000000000000081526004016105b8906132c4565b60405180910390fd5b6004600083815260200190815260200160002060009054906101000a900473ffffffffffffffffffffffffffffffffffffffff169050919050565b600061060782610ae4565b90508073ffffffffffffffffffffffffffffffffffffffff168373ffffffffffffffffffffffffffffffffffffffff161415610678576040517f08c379a000000000000000000000000000000000000000000000000000000000815260040161066f90613304565b60405180910390fd5b8073ffffffffffffffffffffffffffffffffffffffff166106976112f5565b73ffffffffffffffffffffffffffffffffffffffff1614806106c657506106c5816106c06112f5565b61117b565b5b610705576040517f08c379a00000000000000000000000000000000000000000000000000000000081526004016106fc90613204565b60405180910390fd5b61070f83836112fd565b505050565b61072561071f6112f5565b826113b6565b610764576040517f08c379a000000000000000000000000000000000000000000000000000000000815260040161075b90613324565b60405180910390fd5b61076f838383611494565b505050565b600060076000838152602001908152602001600020600101549050919050565b61079d82610774565b6107ae816107a96112f5565b6116fb565b6107b88383611798565b505050565b6107c56112f5565b73ffffffffffffffffffffffffffffffffffffffff168173ffffffffffffffffffffffffffffffffffffffff1614610832576040517f08c379a000000000000000000000000000000000000000000000000000000000815260040161082990613344565b60405180910390fd5b61083c8282611879565b5050565b60096020528060005260406000206000915090508060000160009054906101000a900461ffff1690806001018054610877906136de565b80601f01602080910402602001604051908101604052809291908181526020018280546108a3906136de565b80156108f05780601f106108c5576101008083540402835291602001916108f0565b820191906000526020600020905b8154815290600101906020018083116108d357829003601f168201915b5050505050908060020160009054906101000a900473ffffffffffffffffffffffffffffffffffffffff16905083565b61093b83838360405180602001604052806000815250610d8c565b505050565b60007f9f2df0fed2c77648de5860a4cc508cd0818c85b8b8a1ab4ceeef8d981c8956a66109748161096f6112f5565b6116fb565b61097e600861195b565b600061098a6008611971565b905061099a858261ffff1661197f565b6109a88161ffff168561199d565b60405180606001604052808261ffff1681526020018581526020018673ffffffffffffffffffffffffffffffffffffffff16815250600960008361ffff1661ffff16815260200190815260200160002060008201518160000160006101000a81548161ffff021916908361ffff1602179055506020820151816001019080519060200190610a3792919061257a565b5060408201518160020160006101000a81548173ffffffffffffffffffffffffffffffffffffffff021916908373ffffffffffffffffffffffffffffffffffffffff1602179055509050508473ffffffffffffffffffffffffffffffffffffffff168161ffff167f2169fca571ac413a2cd58ee7ce0947380b8aa3a5fc6dab5b6fcc5a5c14a2d3c086604051610acd9190613102565b60405180910390a38061ffff169250505092915050565b6000806002600084815260200190815260200160002060009054906101000a900473ffffffffffffffffffffffffffffffffffffffff169050600073ffffffffffffffffffffffffffffffffffffffff168173ffffffffffffffffffffffffffffffffffffffff161415610b8d576040517f08c379a0000000000000000000000000000000000000000000000000000000008152600401610b8490613244565b60405180910390fd5b80915050919050565b60008073ffffffffffffffffffffffffffffffffffffffff168273ffffffffffffffffffffffffffffffffffffffff161415610c07576040517f08c379a0000000000000000000000000000000000000000000000000000000008152600401610bfe90613224565b60405180910390fd5b600360008373ffffffffffffffffffffffffffffffffffffffff1673ffffffffffffffffffffffffffffffffffffffff168152602001908152602001600020549050919050565b7f7804d923f43a17d325d77e781528e0793b2edd9890ab45fc64efd7b4b427744c81565b60006007600084815260200190815260200160002060000160008373ffffffffffffffffffffffffffffffffffffffff1673ffffffffffffffffffffffffffffffffffffffff16815260200190815260200160002060009054906101000a900460ff16905092915050565b606060018054610cec906136de565b80601f0160208091040260200160405190810160405280929190818152602001828054610d18906136de565b8015610d655780601f10610d3a57610100808354040283529160200191610d65565b820191906000526020600020905b815481529060010190602001808311610d4857829003601f168201915b5050505050905090565b6000801b81565b610d88610d816112f5565b8383611a11565b5050565b610d9d610d976112f5565b836113b6565b610ddc576040517f08c379a0000000000000000000000000000000000000000000000000000000008152600401610dd390613324565b60405180910390fd5b610de884848484611b7e565b50505050565b6060610df982611289565b610e38576040517f08c379a0000000000000000000000000000000000000000000000000000000008152600401610e2f906132a4565b60405180910390fd5b6000600660008481526020019081526020016000208054610e58906136de565b80601f0160208091040260200160405190810160405280929190818152602001828054610e84906136de565b8015610ed15780601f10610ea657610100808354040283529160200191610ed1565b820191906000526020600020905b815481529060010190602001808311610eb457829003601f168201915b505050505090506000610ee2611bda565b9050600081511415610ef8578192505050610f3b565b600082511115610f2d578082604051602001610f15929190612fe5565b60405160208183030381529060405292505050610f3b565b610f3684611bf1565b925050505b919050565b7f9f2df0fed2c77648de5860a4cc508cd0818c85b8b8a1ab4ceeef8d981c8956a681565b610f6d82610774565b610f7e81610f796112f5565b6116fb565b610f888383611879565b505050565b60606000610f9b6008611971565b905060008161ffff1667ffffffffffffffff811115610fbd57610fbc6138a2565b5b604051908082528060200260200182016040528015610ff657816020015b610fe3612600565b815260200190600190039081610fdb5790505b5090506000600190505b8261ffff168161ffff161161117257600960008261ffff1661ffff1681526020019081526020016000206040518060600160405290816000820160009054906101000a900461ffff1661ffff1661ffff168152602001600182018054611065906136de565b80601f0160208091040260200160405190810160405280929190818152602001828054611091906136de565b80156110de5780601f106110b3576101008083540402835291602001916110de565b820191906000526020600020905b8154815290600101906020018083116110c157829003601f168201915b505050505081526020016002820160009054906101000a900473ffffffffffffffffffffffffffffffffffffffff1673ffffffffffffffffffffffffffffffffffffffff1673ffffffffffffffffffffffffffffffffffffffff1681525050828261ffff168151811061115457611153613873565b5b6020026020010181905250808061116a90613741565b915050611000565b50809250505090565b6000600560008473ffffffffffffffffffffffffffffffffffffffff1673ffffffffffffffffffffffffffffffffffffffff16815260200190815260200160002060008373ffffffffffffffffffffffffffffffffffffffff1673ffffffffffffffffffffffffffffffffffffffff16815260200190815260200160002060009054906101000a900460ff16905092915050565b60007f7965db0b000000000000000000000000000000000000000000000000000000007bffffffffffffffffffffffffffffffffffffffffffffffffffffffff1916827bffffffffffffffffffffffffffffffffffffffffffffffffffffffff19161480611282575061128182611c98565b5b9050919050565b60008073ffffffffffffffffffffffffffffffffffffffff166002600084815260200190815260200160002060009054906101000a900473ffffffffffffffffffffffffffffffffffffffff1673ffffffffffffffffffffffffffffffffffffffff1614159050919050565b600033905090565b816004600083815260200190815260200160002060006101000a81548173ffffffffffffffffffffffffffffffffffffffff021916908373ffffffffffffffffffffffffffffffffffffffff160217905550808273ffffffffffffffffffffffffffffffffffffffff1661137083610ae4565b73ffffffffffffffffffffffffffffffffffffffff167f8c5be1e5ebec7d5bd14f71427d1e84f3dd0314c0f7b2291e5b200ac8c7c3b92560405160405180910390a45050565b60006113c182611289565b611400576040517f08c379a00000000000000000000000000000000000000000000000000000000081526004016113f7906131e4565b60405180910390fd5b600061140b83610ae4565b90508073ffffffffffffffffffffffffffffffffffffffff168473ffffffffffffffffffffffffffffffffffffffff16148061147a57508373ffffffffffffffffffffffffffffffffffffffff1661146284610577565b73ffffffffffffffffffffffffffffffffffffffff16145b8061148b575061148a818561117b565b5b91505092915050565b8273ffffffffffffffffffffffffffffffffffffffff166114b482610ae4565b73ffffffffffffffffffffffffffffffffffffffff161461150a576040517f08c379a000000000000000000000000000000000000000000000000000000000815260040161150190613164565b60405180910390fd5b600073ffffffffffffffffffffffffffffffffffffffff168273ffffffffffffffffffffffffffffffffffffffff16141561157a576040517f08c379a0000000000000000000000000000000000000000000000000000000008152600401611571906131a4565b60405180910390fd5b611585838383611d7a565b6115906000826112fd565b6001600360008573ffffffffffffffffffffffffffffffffffffffff1673ffffffffffffffffffffffffffffffffffffffff16815260200190815260200160002060008282546115e091906135b2565b925050819055506001600360008473ffffffffffffffffffffffffffffffffffffffff1673ffffffffffffffffffffffffffffffffffffffff168152602001908152602001600020600082825461163791906134d1565b92505081905550816002600083815260200190815260200160002060006101000a81548173ffffffffffffffffffffffffffffffffffffffff021916908373ffffffffffffffffffffffffffffffffffffffff160217905550808273ffffffffffffffffffffffffffffffffffffffff168473ffffffffffffffffffffffffffffffffffffffff167fddf252ad1be2c89b69c2b068fc378daa952ba7f163c4a11628f55a4df523b3ef60405160405180910390a46116f6838383611d7f565b505050565b6117058282610c72565b6117945761172a8173ffffffffffffffffffffffffffffffffffffffff166014611d84565b6117388360001c6020611d84565b604051602001611749929190613009565b6040516020818303038152906040526040517f08c379a000000000000000000000000000000000000000000000000000000000815260040161178b9190613102565b60405180910390fd5b5050565b6117a28282610c72565b6118755760016007600084815260200190815260200160002060000160008373ffffffffffffffffffffffffffffffffffffffff1673ffffffffffffffffffffffffffffffffffffffff16815260200190815260200160002060006101000a81548160ff02191690831515021790555061181a6112f5565b73ffffffffffffffffffffffffffffffffffffffff168173ffffffffffffffffffffffffffffffffffffffff16837f2f8788117e7eff1d82e926ec794901d17c78024a50270940304540a733656f0d60405160405180910390a45b5050565b6118838282610c72565b156119575760006007600084815260200190815260200160002060000160008373ffffffffffffffffffffffffffffffffffffffff1673ffffffffffffffffffffffffffffffffffffffff16815260200190815260200160002060006101000a81548160ff0219169083151502179055506118fc6112f5565b73ffffffffffffffffffffffffffffffffffffffff168173ffffffffffffffffffffffffffffffffffffffff16837ff6391f5c32d9c69d2a47ea670b442974b53935d1edc7fd64eb21e047a839171b60405160405180910390a45b5050565b6001816000016000828254019250508190555050565b600081600001549050919050565b611999828260405180602001604052806000815250611fc0565b5050565b6119a682611289565b6119e5576040517f08c379a00000000000000000000000000000000000000000000000000000000081526004016119dc90613264565b60405180910390fd5b80600660008481526020019081526020016000209080519060200190611a0c92919061257a565b505050565b8173ffffffffffffffffffffffffffffffffffffffff168373ffffffffffffffffffffffffffffffffffffffff161415611a80576040517f08c379a0000000000000000000000000000000000000000000000000000000008152600401611a77906131c4565b60405180910390fd5b80600560008573ffffffffffffffffffffffffffffffffffffffff1673ffffffffffffffffffffffffffffffffffffffff16815260200190815260200160002060008473ffffffffffffffffffffffffffffffffffffffff1673ffffffffffffffffffffffffffffffffffffffff16815260200190815260200160002060006101000a81548160ff0219169083151502179055508173ffffffffffffffffffffffffffffffffffffffff168373ffffffffffffffffffffffffffffffffffffffff167f17307eab39ab6107e8899845ad3d59bd9653f200f220920489ca2b5937696c3183604051611b7191906130cc565b60405180910390a3505050565b611b89848484611494565b611b958484848461201b565b611bd4576040517f08c379a0000000000000000000000000000000000000000000000000000000008152600401611bcb90613144565b60405180910390fd5b50505050565b606060405180602001604052806000815250905090565b6060611bfc82611289565b611c3b576040517f08c379a0000000000000000000000000000000000000000000000000000000008152600401611c32906132e4565b60405180910390fd5b6000611c45611bda565b90506000815111611c655760405180602001604052806000815250611c90565b80611c6f846121b2565b604051602001611c80929190612fe5565b6040516020818303038152906040525b915050919050565b60007f80ac58cd000000000000000000000000000000000000000000000000000000007bffffffffffffffffffffffffffffffffffffffffffffffffffffffff1916827bffffffffffffffffffffffffffffffffffffffffffffffffffffffff19161480611d6357507f5b5e139f000000000000000000000000000000000000000000000000000000007bffffffffffffffffffffffffffffffffffffffffffffffffffffffff1916827bffffffffffffffffffffffffffffffffffffffffffffffffffffffff1916145b80611d735750611d7282612313565b5b9050919050565b505050565b505050565b606060006002836002611d979190613558565b611da191906134d1565b67ffffffffffffffff811115611dba57611db96138a2565b5b6040519080825280601f01601f191660200182016040528015611dec5781602001600182028036833780820191505090505b5090507f300000000000000000000000000000000000000000000000000000000000000081600081518110611e2457611e23613873565b5b60200101907effffffffffffffffffffffffffffffffffffffffffffffffffffffffffffff1916908160001a9053507f780000000000000000000000000000000000000000000000000000000000000081600181518110611e8857611e87613873565b5b60200101907effffffffffffffffffffffffffffffffffffffffffffffffffffffffffffff1916908160001a90535060006001846002611ec89190613558565b611ed291906134d1565b90505b6001811115611f72577f3031323334353637383961626364656600000000000000000000000000000000600f861660108110611f1457611f13613873565b5b1a60f81b828281518110611f2b57611f2a613873565b5b60200101907effffffffffffffffffffffffffffffffffffffffffffffffffffffffffffff1916908160001a905350600485901c945080611f6b906136b4565b9050611ed5565b5060008414611fb6576040517f08c379a0000000000000000000000000000000000000000000000000000000008152600401611fad90613124565b60405180910390fd5b8091505092915050565b611fca838361237d565b611fd7600084848461201b565b612016576040517f08c379a000000000000000000000000000000000000000000000000000000000815260040161200d90613144565b60405180910390fd5b505050565b600061203c8473ffffffffffffffffffffffffffffffffffffffff16612557565b156121a5578373ffffffffffffffffffffffffffffffffffffffff1663150b7a026120656112f5565b8786866040518563ffffffff1660e01b8152600401612087949392919061305e565b602060405180830381600087803b1580156120a157600080fd5b505af19250505080156120d257506040513d601f19601f820116820180604052508101906120cf9190612a84565b60015b612155573d8060008114612102576040519150601f19603f3d011682016040523d82523d6000602084013e612107565b606091505b5060008151141561214d576040517f08c379a000000000000000000000000000000000000000000000000000000000815260040161214490613144565b60405180910390fd5b805181602001fd5b63150b7a0260e01b7bffffffffffffffffffffffffffffffffffffffffffffffffffffffff1916817bffffffffffffffffffffffffffffffffffffffffffffffffffffffff1916149150506121aa565b600190505b949350505050565b606060008214156121fa576040518060400160405280600181526020017f3000000000000000000000000000000000000000000000000000000000000000815250905061230e565b600082905060005b6000821461222c5780806122159061376c565b915050600a826122259190613527565b9150612202565b60008167ffffffffffffffff811115612248576122476138a2565b5b6040519080825280601f01601f19166020018201604052801561227a5781602001600182028036833780820191505090505b5090505b600085146123075760018261229391906135b2565b9150600a856122a291906137b5565b60306122ae91906134d1565b60f81b8183815181106122c4576122c3613873565b5b60200101907effffffffffffffffffffffffffffffffffffffffffffffffffffffffffffff1916908160001a905350600a856123009190613527565b945061227e565b8093505050505b919050565b60007f01ffc9a7000000000000000000000000000000000000000000000000000000007bffffffffffffffffffffffffffffffffffffffffffffffffffffffff1916827bffffffffffffffffffffffffffffffffffffffffffffffffffffffff1916149050919050565b600073ffffffffffffffffffffffffffffffffffffffff168273ffffffffffffffffffffffffffffffffffffffff1614156123ed576040517f08c379a00000000000000000000000000000000000000000000000000000000081526004016123e490613284565b60405180910390fd5b6123f681611289565b15612436576040517f08c379a000000000000000000000000000000000000000000000000000000000815260040161242d90613184565b60405180910390fd5b61244260008383611d7a565b6001600360008473ffffffffffffffffffffffffffffffffffffffff1673ffffffffffffffffffffffffffffffffffffffff168152602001908152602001600020600082825461249291906134d1565b92505081905550816002600083815260200190815260200160002060006101000a81548173ffffffffffffffffffffffffffffffffffffffff021916908373ffffffffffffffffffffffffffffffffffffffff160217905550808273ffffffffffffffffffffffffffffffffffffffff16600073ffffffffffffffffffffffffffffffffffffffff167fddf252ad1be2c89b69c2b068fc378daa952ba7f163c4a11628f55a4df523b3ef60405160405180910390a461255360008383611d7f565b5050565b6000808273ffffffffffffffffffffffffffffffffffffffff163b119050919050565b828054612586906136de565b90600052602060002090601f0160209004810192826125a857600085556125ef565b82601f106125c157805160ff19168380011785556125ef565b828001600101855582156125ef579182015b828111156125ee5782518255916020019190600101906125d3565b5b5090506125fc919061263b565b5090565b6040518060600160405280600061ffff16815260200160608152602001600073ffffffffffffffffffffffffffffffffffffffff1681525090565b5b8082111561265457600081600090555060010161263c565b5090565b600061266b612666846133e2565b6133bd565b905082815260208101848484011115612687576126866138d6565b5b612692848285613672565b509392505050565b60006126ad6126a884613413565b6133bd565b9050828152602081018484840111156126c9576126c86138d6565b5b6126d4848285613672565b509392505050565b6000813590506126eb81613e3e565b92915050565b60008135905061270081613e55565b92915050565b60008135905061271581613e6c565b92915050565b60008135905061272a81613e83565b92915050565b60008151905061273f81613e83565b92915050565b600082601f83011261275a576127596138d1565b5b813561276a848260208601612658565b91505092915050565b600082601f830112612788576127876138d1565b5b813561279884826020860161269a565b91505092915050565b6000813590506127b081613e9a565b92915050565b6000813590506127c581613eb1565b92915050565b6000602082840312156127e1576127e06138e0565b5b60006127ef848285016126dc565b91505092915050565b6000806040838503121561280f5761280e6138e0565b5b600061281d858286016126dc565b925050602061282e858286016126dc565b9150509250929050565b600080600060608486031215612851576128506138e0565b5b600061285f868287016126dc565b9350506020612870868287016126dc565b9250506040612881868287016127b6565b9150509250925092565b600080600080608085870312156128a5576128a46138e0565b5b60006128b3878288016126dc565b94505060206128c4878288016126dc565b93505060406128d5878288016127b6565b925050606085013567ffffffffffffffff8111156128f6576128f56138db565b5b61290287828801612745565b91505092959194509250565b60008060408385031215612925576129246138e0565b5b6000612933858286016126dc565b9250506020612944858286016126f1565b9150509250929050565b60008060408385031215612965576129646138e0565b5b6000612973858286016126dc565b925050602083013567ffffffffffffffff811115612994576129936138db565b5b6129a085828601612773565b9150509250929050565b600080604083850312156129c1576129c06138e0565b5b60006129cf858286016126dc565b92505060206129e0858286016127b6565b9150509250929050565b600060208284031215612a00576129ff6138e0565b5b6000612a0e84828501612706565b91505092915050565b60008060408385031215612a2e57612a2d6138e0565b5b6000612a3c85828601612706565b9250506020612a4d858286016126dc565b9150509250929050565b600060208284031215612a6d57612a6c6138e0565b5b6000612a7b8482850161271b565b91505092915050565b600060208284031215612a9a57612a996138e0565b5b6000612aa884828501612730565b91505092915050565b600060208284031215612ac757612ac66138e0565b5b6000612ad5848285016127a1565b91505092915050565b600060208284031215612af457612af36138e0565b5b6000612b02848285016127b6565b91505092915050565b6000612b178383612f68565b905092915050565b612b28816135e6565b82525050565b612b37816135e6565b82525050565b6000612b4882613454565b612b528185613482565b935083602082028501612b6485613444565b8060005b85811015612ba05784840389528151612b818582612b0b565b9450612b8c83613475565b925060208a01995050600181019050612b68565b50829750879550505050505092915050565b612bbb816135f8565b82525050565b612bca81613604565b82525050565b6000612bdb8261345f565b612be58185613493565b9350612bf5818560208601613681565b612bfe816138e5565b840191505092915050565b6000612c148261346a565b612c1e81856134a4565b9350612c2e818560208601613681565b612c37816138e5565b840191505092915050565b6000612c4d8261346a565b612c5781856134b5565b9350612c67818560208601613681565b612c70816138e5565b840191505092915050565b6000612c868261346a565b612c9081856134c6565b9350612ca0818560208601613681565b80840191505092915050565b6000612cb96020836134b5565b9150612cc4826138f6565b602082019050919050565b6000612cdc6032836134b5565b9150612ce78261391f565b604082019050919050565b6000612cff6025836134b5565b9150612d0a8261396e565b604082019050919050565b6000612d22601c836134b5565b9150612d2d826139bd565b602082019050919050565b6000612d456024836134b5565b9150612d50826139e6565b604082019050919050565b6000612d686019836134b5565b9150612d7382613a35565b602082019050919050565b6000612d8b602c836134b5565b9150612d9682613a5e565b604082019050919050565b6000612dae6038836134b5565b9150612db982613aad565b604082019050919050565b6000612dd1602a836134b5565b9150612ddc82613afc565b604082019050919050565b6000612df46029836134b5565b9150612dff82613b4b565b604082019050919050565b6000612e17602e836134b5565b9150612e2282613b9a565b604082019050919050565b6000612e3a6020836134b5565b9150612e4582613be9565b602082019050919050565b6000612e5d6031836134b5565b9150612e6882613c12565b604082019050919050565b6000612e80602c836134b5565b9150612e8b82613c61565b604082019050919050565b6000612ea3602f836134b5565b9150612eae82613cb0565b604082019050919050565b6000612ec66021836134b5565b9150612ed182613cff565b604082019050919050565b6000612ee96031836134b5565b9150612ef482613d4e565b604082019050919050565b6000612f0c6017836134c6565b9150612f1782613d9d565b601782019050919050565b6000612f2f6011836134c6565b9150612f3a82613dc6565b601182019050919050565b6000612f52602f836134b5565b9150612f5d82613def565b604082019050919050565b6000606083016000830151612f806000860182612fb8565b5060208301518482036020860152612f988282612c09565b9150506040830151612fad6040860182612b1f565b508091505092915050565b612fc18161363a565b82525050565b612fd08161363a565b82525050565b612fdf81613668565b82525050565b6000612ff18285612c7b565b9150612ffd8284612c7b565b91508190509392505050565b600061301482612eff565b91506130208285612c7b565b915061302b82612f22565b91506130378284612c7b565b91508190509392505050565b60006020820190506130586000830184612b2e565b92915050565b60006080820190506130736000830187612b2e565b6130806020830186612b2e565b61308d6040830185612fd6565b818103606083015261309f8184612bd0565b905095945050505050565b600060208201905081810360008301526130c48184612b3d565b905092915050565b60006020820190506130e16000830184612bb2565b92915050565b60006020820190506130fc6000830184612bc1565b92915050565b6000602082019050818103600083015261311c8184612c42565b905092915050565b6000602082019050818103600083015261313d81612cac565b9050919050565b6000602082019050818103600083015261315d81612ccf565b9050919050565b6000602082019050818103600083015261317d81612cf2565b9050919050565b6000602082019050818103600083015261319d81612d15565b9050919050565b600060208201905081810360008301526131bd81612d38565b9050919050565b600060208201905081810360008301526131dd81612d5b565b9050919050565b600060208201905081810360008301526131fd81612d7e565b9050919050565b6000602082019050818103600083015261321d81612da1565b9050919050565b6000602082019050818103600083015261323d81612dc4565b9050919050565b6000602082019050818103600083015261325d81612de7565b9050919050565b6000602082019050818103600083015261327d81612e0a565b9050919050565b6000602082019050818103600083015261329d81612e2d565b9050919050565b600060208201905081810360008301526132bd81612e50565b9050919050565b600060208201905081810360008301526132dd81612e73565b9050919050565b600060208201905081810360008301526132fd81612e96565b9050919050565b6000602082019050818103600083015261331d81612eb9565b9050919050565b6000602082019050818103600083015261333d81612edc565b9050919050565b6000602082019050818103600083015261335d81612f45565b9050919050565b60006060820190506133796000830186612fc7565b818103602083015261338b8185612c42565b905061339a6040830184612b2e565b949350505050565b60006020820190506133b76000830184612fd6565b92915050565b60006133c76133d8565b90506133d38282613710565b919050565b6000604051905090565b600067ffffffffffffffff8211156133fd576133fc6138a2565b5b613406826138e5565b9050602081019050919050565b600067ffffffffffffffff82111561342e5761342d6138a2565b5b613437826138e5565b9050602081019050919050565b6000819050602082019050919050565b600081519050919050565b600081519050919050565b600081519050919050565b6000602082019050919050565b600082825260208201905092915050565b600082825260208201905092915050565b600082825260208201905092915050565b600082825260208201905092915050565b600081905092915050565b60006134dc82613668565b91506134e783613668565b9250827fffffffffffffffffffffffffffffffffffffffffffffffffffffffffffffffff0382111561351c5761351b6137e6565b5b828201905092915050565b600061353282613668565b915061353d83613668565b92508261354d5761354c613815565b5b828204905092915050565b600061356382613668565b915061356e83613668565b9250817fffffffffffffffffffffffffffffffffffffffffffffffffffffffffffffffff04831182151516156135a7576135a66137e6565b5b828202905092915050565b60006135bd82613668565b91506135c883613668565b9250828210156135db576135da6137e6565b5b828203905092915050565b60006135f182613648565b9050919050565b60008115159050919050565b6000819050919050565b60007fffffffff0000000000000000000000000000000000000000000000000000000082169050919050565b600061ffff82169050919050565b600073ffffffffffffffffffffffffffffffffffffffff82169050919050565b6000819050919050565b82818337600083830152505050565b60005b8381101561369f578082015181840152602081019050613684565b838111156136ae576000848401525b50505050565b60006136bf82613668565b915060008214156136d3576136d26137e6565b5b600182039050919050565b600060028204905060018216806136f657607f821691505b6020821081141561370a57613709613844565b5b50919050565b613719826138e5565b810181811067ffffffffffffffff82111715613738576137376138a2565b5b80604052505050565b600061374c8261363a565b915061ffff821415613761576137606137e6565b5b600182019050919050565b600061377782613668565b91507fffffffffffffffffffffffffffffffffffffffffffffffffffffffffffffffff8214156137aa576137a96137e6565b5b600182019050919050565b60006137c082613668565b91506137cb83613668565b9250826137db576137da613815565b5b828206905092915050565b7f4e487b7100000000000000000000000000000000000000000000000000000000600052601160045260246000fd5b7f4e487b7100000000000000000000000000000000000000000000000000000000600052601260045260246000fd5b7f4e487b7100000000000000000000000000000000000000000000000000000000600052602260045260246000fd5b7f4e487b7100000000000000000000000000000000000000000000000000000000600052603260045260246000fd5b7f4e487b7100000000000000000000000000000000000000000000000000000000600052604160045260246000fd5b600080fd5b600080fd5b600080fd5b600080fd5b6000601f19601f8301169050919050565b7f537472696e67733a20686578206c656e67746820696e73756666696369656e74600082015250565b7f4552433732313a207472616e7366657220746f206e6f6e20455243373231526560008201527f63656976657220696d706c656d656e7465720000000000000000000000000000602082015250565b7f4552433732313a207472616e736665722066726f6d20696e636f72726563742060008201527f6f776e6572000000000000000000000000000000000000000000000000000000602082015250565b7f4552433732313a20746f6b656e20616c7265616479206d696e74656400000000600082015250565b7f4552433732313a207472616e7366657220746f20746865207a65726f2061646460008201527f7265737300000000000000000000000000000000000000000000000000000000602082015250565b7f4552433732313a20617070726f766520746f2063616c6c657200000000000000600082015250565b7f4552433732313a206f70657261746f7220717565727920666f72206e6f6e657860008201527f697374656e7420746f6b656e0000000000000000000000000000000000000000602082015250565b7f4552433732313a20617070726f76652063616c6c6572206973206e6f74206f7760008201527f6e6572206e6f7220617070726f76656420666f7220616c6c0000000000000000602082015250565b7f4552433732313a2062616c616e636520717565727920666f7220746865207a6560008201527f726f206164647265737300000000000000000000000000000000000000000000602082015250565b7f4552433732313a206f776e657220717565727920666f72206e6f6e657869737460008201527f656e7420746f6b656e0000000000000000000000000000000000000000000000602082015250565b7f45524337323155524953746f726167653a2055524920736574206f66206e6f6e60008201527f6578697374656e7420746f6b656e000000000000000000000000000000000000602082015250565b7f4552433732313a206d696e7420746f20746865207a65726f2061646472657373600082015250565b7f45524337323155524953746f726167653a2055524920717565727920666f722060008201527f6e6f6e6578697374656e7420746f6b656e000000000000000000000000000000602082015250565b7f4552433732313a20617070726f76656420717565727920666f72206e6f6e657860008201527f697374656e7420746f6b656e0000000000000000000000000000000000000000602082015250565b7f4552433732314d657461646174613a2055524920717565727920666f72206e6f60008201527f6e6578697374656e7420746f6b656e0000000000000000000000000000000000602082015250565b7f4552433732313a20617070726f76616c20746f2063757272656e74206f776e6560008201527f7200000000000000000000000000000000000000000000000000000000000000602082015250565b7f4552433732313a207472616e736665722063616c6c6572206973206e6f74206f60008201527f776e6572206e6f7220617070726f766564000000000000000000000000000000602082015250565b7f416363657373436f6e74726f6c3a206163636f756e7420000000000000000000600082015250565b7f206973206d697373696e6720726f6c6520000000000000000000000000000000600082015250565b7f416363657373436f6e74726f6c3a2063616e206f6e6c792072656e6f756e636560008201527f20726f6c657320666f722073656c660000000000000000000000000000000000602082015250565b613e47816135e6565b8114613e5257600080fd5b50565b613e5e816135f8565b8114613e6957600080fd5b50565b613e7581613604565b8114613e8057600080fd5b50565b613e8c8161360e565b8114613e9757600080fd5b50565b613ea38161363a565b8114613eae57600080fd5b50565b613eba81613668565b8114613ec557600080fd5b5056fea2646970667358221220d7bf3e1aaba3c0469c00c0d3de4b7ec5c2b4e750f78f1ca937fb674a4d4338a464736f6c63430008070033",
  "linkReferences": {},
  "deployedLinkReferences": {}
}