{
  "_format": "hh-sol-artifact-1",
  "contractName": "TimeTravellersNFT",
  "sourceName": "contracts/TimeTravellersNFT.sol",
  "abi": [
    {
      "inputs": [
        {
          "internalType": "string",
          "name": "_newBaseURI",
          "type": "string"
        }
      ],
      "stateMutability": "nonpayable",
      "type": "constructor"
    },
    {
      "anonymous": false,
      "inputs": [
        {
          "indexed": true,
          "internalType": "address",
          "name": "owner",
          "type": "address"
        },
        {
          "indexed": true,
          "internalType": "address",
          "name": "approved",
          "type": "address"
        },
        {
          "indexed": true,
          "internalType": "uint256",
          "name": "tokenId",
          "type": "uint256"
        }
      ],
      "name": "Approval",
      "type": "event"
    },
    {
      "anonymous": false,
      "inputs": [
        {
          "indexed": true,
          "internalType": "address",
          "name": "owner",
          "type": "address"
        },
        {
          "indexed": true,
          "internalType": "address",
          "name": "operator",
          "type": "address"
        },
        {
          "indexed": false,
          "internalType": "bool",
          "name": "approved",
          "type": "bool"
        }
      ],
      "name": "ApprovalForAll",
      "type": "event"
    },
    {
      "anonymous": false,
      "inputs": [
        {
          "indexed": true,
          "internalType": "bytes32",
          "name": "role",
          "type": "bytes32"
        },
        {
          "indexed": true,
          "internalType": "bytes32",
          "name": "previousAdminRole",
          "type": "bytes32"
        },
        {
          "indexed": true,
          "internalType": "bytes32",
          "name": "newAdminRole",
          "type": "bytes32"
        }
      ],
      "name": "RoleAdminChanged",
      "type": "event"
    },
    {
      "anonymous": false,
      "inputs": [
        {
          "indexed": true,
          "internalType": "bytes32",
          "name": "role",
          "type": "bytes32"
        },
        {
          "indexed": true,
          "internalType": "address",
          "name": "account",
          "type": "address"
        },
        {
          "indexed": true,
          "internalType": "address",
          "name": "sender",
          "type": "address"
        }
      ],
      "name": "RoleGranted",
      "type": "event"
    },
    {
      "anonymous": false,
      "inputs": [
        {
          "indexed": true,
          "internalType": "bytes32",
          "name": "role",
          "type": "bytes32"
        },
        {
          "indexed": true,
          "internalType": "address",
          "name": "account",
          "type": "address"
        },
        {
          "indexed": true,
          "internalType": "address",
          "name": "sender",
          "type": "address"
        }
      ],
      "name": "RoleRevoked",
      "type": "event"
    },
    {
      "anonymous": false,
      "inputs": [
        {
          "indexed": true,
          "internalType": "uint256",
          "name": "tweetId",
          "type": "uint256"
        },
        {
          "indexed": false,
          "internalType": "string",
          "name": "tokenURI",
          "type": "string"
        },
        {
          "indexed": true,
          "internalType": "address",
          "name": "minter",
          "type": "address"
        }
      ],
      "name": "TokenCreated",
      "type": "event"
    },
    {
      "anonymous": false,
      "inputs": [
        {
          "indexed": true,
          "internalType": "address",
          "name": "from",
          "type": "address"
        },
        {
          "indexed": true,
          "internalType": "address",
          "name": "to",
          "type": "address"
        },
        {
          "indexed": true,
          "internalType": "uint256",
          "name": "tokenId",
          "type": "uint256"
        }
      ],
      "name": "Transfer",
      "type": "event"
    },
    {
      "inputs": [],
      "name": "DEFAULT_ADMIN_ROLE",
      "outputs": [
        {
          "internalType": "bytes32",
          "name": "",
          "type": "bytes32"
        }
      ],
      "stateMutability": "view",
      "type": "function"
    },
    {
      "inputs": [],
      "name": "MINTER_ROLE",
      "outputs": [
        {
          "internalType": "bytes32",
          "name": "",
          "type": "bytes32"
        }
      ],
      "stateMutability": "view",
      "type": "function"
    },
    {
      "inputs": [],
      "name": "PAUSER_ROLE",
      "outputs": [
        {
          "internalType": "bytes32",
          "name": "",
          "type": "bytes32"
        }
      ],
      "stateMutability": "view",
      "type": "function"
    },
    {
      "inputs": [],
      "name": "URI_SETTER_ROLE",
      "outputs": [
        {
          "internalType": "bytes32",
          "name": "",
          "type": "bytes32"
        }
      ],
      "stateMutability": "view",
      "type": "function"
    },
    {
      "inputs": [
        {
          "internalType": "address",
          "name": "to",
          "type": "address"
        },
        {
          "internalType": "uint256",
          "name": "tokenId",
          "type": "uint256"
        }
      ],
      "name": "approve",
      "outputs": [],
      "stateMutability": "nonpayable",
      "type": "function"
    },
    {
      "inputs": [
        {
          "internalType": "address",
          "name": "owner",
          "type": "address"
        }
      ],
      "name": "balanceOf",
      "outputs": [
        {
          "internalType": "uint256",
          "name": "",
          "type": "uint256"
        }
      ],
      "stateMutability": "view",
      "type": "function"
    },
    {
      "inputs": [],
      "name": "baseURI",
      "outputs": [
        {
          "internalType": "string",
          "name": "",
          "type": "string"
        }
      ],
      "stateMutability": "view",
      "type": "function"
    },
    {
      "inputs": [],
      "name": "flipSaleState",
      "outputs": [
        {
          "internalType": "bool",
          "name": "",
          "type": "bool"
        }
      ],
      "stateMutability": "nonpayable",
      "type": "function"
    },
    {
      "inputs": [
        {
          "internalType": "uint256",
          "name": "tokenId",
          "type": "uint256"
        }
      ],
      "name": "getApproved",
      "outputs": [
        {
          "internalType": "address",
          "name": "",
          "type": "address"
        }
      ],
      "stateMutability": "view",
      "type": "function"
    },
    {
      "inputs": [
        {
          "internalType": "bytes32",
          "name": "role",
          "type": "bytes32"
        }
      ],
      "name": "getRoleAdmin",
      "outputs": [
        {
          "internalType": "bytes32",
          "name": "",
          "type": "bytes32"
        }
      ],
      "stateMutability": "view",
      "type": "function"
    },
    {
      "inputs": [],
      "name": "getTokenCount",
      "outputs": [
        {
          "internalType": "uint256",
          "name": "",
          "type": "uint256"
        }
      ],
      "stateMutability": "view",
      "type": "function"
    },
    {
      "inputs": [
        {
          "internalType": "bytes32",
          "name": "role",
          "type": "bytes32"
        },
        {
          "internalType": "address",
          "name": "account",
          "type": "address"
        }
      ],
      "name": "grantRole",
      "outputs": [],
      "stateMutability": "nonpayable",
      "type": "function"
    },
    {
      "inputs": [
        {
          "internalType": "bytes32",
          "name": "role",
          "type": "bytes32"
        },
        {
          "internalType": "address",
          "name": "account",
          "type": "address"
        }
      ],
      "name": "hasRole",
      "outputs": [
        {
          "internalType": "bool",
          "name": "",
          "type": "bool"
        }
      ],
      "stateMutability": "view",
      "type": "function"
    },
    {
      "inputs": [
        {
          "internalType": "address",
          "name": "owner",
          "type": "address"
        },
        {
          "internalType": "address",
          "name": "operator",
          "type": "address"
        }
      ],
      "name": "isApprovedForAll",
      "outputs": [
        {
          "internalType": "bool",
          "name": "",
          "type": "bool"
        }
      ],
      "stateMutability": "view",
      "type": "function"
    },
    {
      "inputs": [
        {
          "internalType": "address",
          "name": "_account",
          "type": "address"
        },
        {
          "internalType": "uint256",
          "name": "_tweetId",
          "type": "uint256"
        },
        {
          "internalType": "string",
          "name": "_tokenURI",
          "type": "string"
        }
      ],
      "name": "mintTweet",
      "outputs": [
        {
          "internalType": "uint256",
          "name": "",
          "type": "uint256"
        }
      ],
      "stateMutability": "nonpayable",
      "type": "function"
    },
    {
      "inputs": [],
      "name": "name",
      "outputs": [
        {
          "internalType": "string",
          "name": "",
          "type": "string"
        }
      ],
      "stateMutability": "view",
      "type": "function"
    },
    {
      "inputs": [
        {
          "internalType": "uint256",
          "name": "tokenId",
          "type": "uint256"
        }
      ],
      "name": "ownerOf",
      "outputs": [
        {
          "internalType": "address",
          "name": "",
          "type": "address"
        }
      ],
      "stateMutability": "view",
      "type": "function"
    },
    {
      "inputs": [
        {
          "internalType": "bytes32",
          "name": "role",
          "type": "bytes32"
        },
        {
          "internalType": "address",
          "name": "account",
          "type": "address"
        }
      ],
      "name": "renounceRole",
      "outputs": [],
      "stateMutability": "nonpayable",
      "type": "function"
    },
    {
      "inputs": [
        {
          "internalType": "bytes32",
          "name": "role",
          "type": "bytes32"
        },
        {
          "internalType": "address",
          "name": "account",
          "type": "address"
        }
      ],
      "name": "revokeRole",
      "outputs": [],
      "stateMutability": "nonpayable",
      "type": "function"
    },
    {
      "inputs": [
        {
          "internalType": "address",
          "name": "from",
          "type": "address"
        },
        {
          "internalType": "address",
          "name": "to",
          "type": "address"
        },
        {
          "internalType": "uint256",
          "name": "tokenId",
          "type": "uint256"
        }
      ],
      "name": "safeTransferFrom",
      "outputs": [],
      "stateMutability": "nonpayable",
      "type": "function"
    },
    {
      "inputs": [
        {
          "internalType": "address",
          "name": "from",
          "type": "address"
        },
        {
          "internalType": "address",
          "name": "to",
          "type": "address"
        },
        {
          "internalType": "uint256",
          "name": "tokenId",
          "type": "uint256"
        },
        {
          "internalType": "bytes",
          "name": "_data",
          "type": "bytes"
        }
      ],
      "name": "safeTransferFrom",
      "outputs": [],
      "stateMutability": "nonpayable",
      "type": "function"
    },
    {
      "inputs": [],
      "name": "saleIsActive",
      "outputs": [
        {
          "internalType": "bool",
          "name": "",
          "type": "bool"
        }
      ],
      "stateMutability": "view",
      "type": "function"
    },
    {
      "inputs": [
        {
          "internalType": "address",
          "name": "operator",
          "type": "address"
        },
        {
          "internalType": "bool",
          "name": "approved",
          "type": "bool"
        }
      ],
      "name": "setApprovalForAll",
      "outputs": [],
      "stateMutability": "nonpayable",
      "type": "function"
    },
    {
      "inputs": [
        {
          "internalType": "string",
          "name": "_newBaseURI",
          "type": "string"
        }
      ],
      "name": "setBaseURI",
      "outputs": [
        {
          "internalType": "string",
          "name": "",
          "type": "string"
        }
      ],
      "stateMutability": "nonpayable",
      "type": "function"
    },
    {
      "inputs": [
        {
          "internalType": "bytes4",
          "name": "interfaceId",
          "type": "bytes4"
        }
      ],
      "name": "supportsInterface",
      "outputs": [
        {
          "internalType": "bool",
          "name": "",
          "type": "bool"
        }
      ],
      "stateMutability": "view",
      "type": "function"
    },
    {
      "inputs": [],
      "name": "symbol",
      "outputs": [
        {
          "internalType": "string",
          "name": "",
          "type": "string"
        }
      ],
      "stateMutability": "view",
      "type": "function"
    },
    {
      "inputs": [
        {
          "internalType": "uint256",
          "name": "tokenId",
          "type": "uint256"
        }
      ],
      "name": "tokenURI",
      "outputs": [
        {
          "internalType": "string",
          "name": "",
          "type": "string"
        }
      ],
      "stateMutability": "view",
      "type": "function"
    },
    {
      "inputs": [
        {
          "internalType": "address",
          "name": "from",
          "type": "address"
        },
        {
          "internalType": "address",
          "name": "to",
          "type": "address"
        },
        {
          "internalType": "uint256",
          "name": "tokenId",
          "type": "uint256"
        }
      ],
      "name": "transferFrom",
      "outputs": [],
      "stateMutability": "nonpayable",
      "type": "function"
    }
  ],
  "bytecode": "0x60806040523480156200001157600080fd5b506040516200435138038062004351833981810160405281019062000037919062000450565b6040518060400160405280601381526020017f54696d652d54726176656c6c6572732d4e4654000000000000000000000000008152506040518060400160405280600381526020017f54544e00000000000000000000000000000000000000000000000000000000008152508160009080519060200190620000bb92919062000322565b508060019080519060200190620000d492919062000322565b505050620000ec6000801b33620001bd60201b60201c565b6200011e7f9f2df0fed2c77648de5860a4cc508cd0818c85b8b8a1ab4ceeef8d981c8956a633620001bd60201b60201c565b620001507f65d7a28e3265b37a6474929f336521b332c1681b933f6cb9f3376673440d862a33620001bd60201b60201c565b620001827f7804d923f43a17d325d77e781528e0793b2edd9890ab45fc64efd7b4b427744c33620001bd60201b60201c565b80600990805190602001906200019a92919062000322565b506000600860006101000a81548160ff0219169083151502179055505062000625565b620001cf8282620002af60201b60201c565b620002ab5760016007600084815260200190815260200160002060000160008373ffffffffffffffffffffffffffffffffffffffff1673ffffffffffffffffffffffffffffffffffffffff16815260200190815260200160002060006101000a81548160ff021916908315150217905550620002506200031a60201b60201c565b73ffffffffffffffffffffffffffffffffffffffff168173ffffffffffffffffffffffffffffffffffffffff16837f2f8788117e7eff1d82e926ec794901d17c78024a50270940304540a733656f0d60405160405180910390a45b5050565b60006007600084815260200190815260200160002060000160008373ffffffffffffffffffffffffffffffffffffffff1673ffffffffffffffffffffffffffffffffffffffff16815260200190815260200160002060009054906101000a900460ff16905092915050565b600033905090565b828054620003309062000536565b90600052602060002090601f016020900481019282620003545760008555620003a0565b82601f106200036f57805160ff1916838001178555620003a0565b82800160010185558215620003a0579182015b828111156200039f57825182559160200191906001019062000382565b5b509050620003af9190620003b3565b5090565b5b80821115620003ce576000816000905550600101620003b4565b5090565b6000620003e9620003e384620004ca565b620004a1565b90508281526020810184848401111562000408576200040762000605565b5b6200041584828562000500565b509392505050565b600082601f83011262000435576200043462000600565b5b815162000447848260208601620003d2565b91505092915050565b6000602082840312156200046957620004686200060f565b5b600082015167ffffffffffffffff8111156200048a57620004896200060a565b5b62000498848285016200041d565b91505092915050565b6000620004ad620004c0565b9050620004bb82826200056c565b919050565b6000604051905090565b600067ffffffffffffffff821115620004e857620004e7620005d1565b5b620004f38262000614565b9050602081019050919050565b60005b838110156200052057808201518184015260208101905062000503565b8381111562000530576000848401525b50505050565b600060028204905060018216806200054f57607f821691505b60208210811415620005665762000565620005a2565b5b50919050565b620005778262000614565b810181811067ffffffffffffffff82111715620005995762000598620005d1565b5b80604052505050565b7f4e487b7100000000000000000000000000000000000000000000000000000000600052602260045260246000fd5b7f4e487b7100000000000000000000000000000000000000000000000000000000600052604160045260246000fd5b600080fd5b600080fd5b600080fd5b600080fd5b6000601f19601f8301169050919050565b613d1c80620006356000396000f3fe608060405234801561001057600080fd5b50600436106101c45760003560e01c806370a08231116100f9578063b88d4fde11610097578063d547741f11610071578063d547741f1461052d578063e63ab1e914610549578063e985e9c514610567578063eb8d244414610597576101c4565b8063b88d4fde146104c3578063c87b56dd146104df578063d53913931461050f576101c4565b806391d14854116100d357806391d148541461043b57806395d89b411461046b578063a217fddf14610489578063a22cb465146104a7576101c4565b806370a08231146103cf57806378a89567146103ff5780637f3457101461041d576101c4565b806334918dfd1161016657806355f804b31161014057806355f804b3146103215780636352211e14610351578063668aa818146103815780636c0360eb146103b1576101c4565b806334918dfd146102cb57806336568abe146102e957806342842e0e14610305576101c4565b8063095ea7b3116101a2578063095ea7b31461024757806323b872dd14610263578063248a9ca31461027f5780632f2ff15d146102af576101c4565b806301ffc9a7146101c957806306fdde03146101f9578063081812fc14610217575b600080fd5b6101e360048036038101906101de9190612a26565b6105b5565b6040516101f09190612f79565b60405180910390f35b6102016105c7565b60405161020e9190612faf565b60405180910390f35b610231600480360381019061022c9190612ac9565b610659565b60405161023e9190612f12565b60405180910390f35b610261600480360381019061025c919061290a565b6106de565b005b61027d600480360381019061027891906127f4565b6107f6565b005b610299600480360381019061029491906129b9565b610856565b6040516102a69190612f94565b60405180910390f35b6102c960048036038101906102c491906129e6565b610876565b005b6102d361089f565b6040516102e09190612f79565b60405180910390f35b61030360048036038101906102fe91906129e6565b610902565b005b61031f600480360381019061031a91906127f4565b610985565b005b61033b60048036038101906103369190612a80565b6109a5565b6040516103489190612faf565b60405180910390f35b61036b60048036038101906103669190612ac9565b610a80565b6040516103789190612f12565b60405180910390f35b61039b6004803603810190610396919061294a565b610b32565b6040516103a89190613231565b60405180910390f35b6103b9610c2d565b6040516103c69190612faf565b60405180910390f35b6103e960048036038101906103e49190612787565b610cbb565b6040516103f69190613231565b60405180910390f35b610407610d73565b6040516104149190613231565b60405180910390f35b610425610d84565b6040516104329190612f94565b60405180910390f35b610455600480360381019061045091906129e6565b610da8565b6040516104629190612f79565b60405180910390f35b610473610e13565b6040516104809190612faf565b60405180910390f35b610491610ea5565b60405161049e9190612f94565b60405180910390f35b6104c160048036038101906104bc91906128ca565b610eac565b005b6104dd60048036038101906104d89190612847565b610ec2565b005b6104f960048036038101906104f49190612ac9565b610f24565b6040516105069190612faf565b60405180910390f35b610517610f36565b6040516105249190612f94565b60405180910390f35b610547600480360381019061054291906129e6565b610f5a565b005b610551610f83565b60405161055e9190612f94565b60405180910390f35b610581600480360381019061057c91906127b4565b610fa7565b60405161058e9190612f79565b60405180910390f35b61059f61103b565b6040516105ac9190612f79565b60405180910390f35b60006105c08261104e565b9050919050565b6060600080546105d690613515565b80601f016020809104026020016040519081016040528092919081815260200182805461060290613515565b801561064f5780601f106106245761010080835404028352916020019161064f565b820191906000526020600020905b81548152906001019060200180831161063257829003601f168201915b5050505050905090565b6000610664826110c8565b6106a3576040517f08c379a000000000000000000000000000000000000000000000000000000000815260040161069a90613171565b60405180910390fd5b6004600083815260200190815260200160002060009054906101000a900473ffffffffffffffffffffffffffffffffffffffff169050919050565b60006106e982610a80565b90508073ffffffffffffffffffffffffffffffffffffffff168373ffffffffffffffffffffffffffffffffffffffff16141561075a576040517f08c379a0000000000000000000000000000000000000000000000000000000008152600401610751906131b1565b60405180910390fd5b8073ffffffffffffffffffffffffffffffffffffffff16610779611134565b73ffffffffffffffffffffffffffffffffffffffff1614806107a857506107a7816107a2611134565b610fa7565b5b6107e7576040517f08c379a00000000000000000000000000000000000000000000000000000000081526004016107de906130b1565b60405180910390fd5b6107f1838361113c565b505050565b610807610801611134565b826111f5565b610846576040517f08c379a000000000000000000000000000000000000000000000000000000000815260040161083d906131d1565b60405180910390fd5b6108518383836112d3565b505050565b600060076000838152602001908152602001600020600101549050919050565b61087f82610856565b6108908161088b611134565b61153a565b61089a83836115d7565b505050565b60007f65d7a28e3265b37a6474929f336521b332c1681b933f6cb9f3376673440d862a6108d3816108ce611134565b61153a565b600860009054906101000a900460ff1615600860006101000a81548160ff021916908315150217905591505090565b61090a611134565b73ffffffffffffffffffffffffffffffffffffffff168173ffffffffffffffffffffffffffffffffffffffff1614610977576040517f08c379a000000000000000000000000000000000000000000000000000000000815260040161096e90613211565b60405180910390fd5b61098182826116b8565b5050565b6109a083838360405180602001604052806000815250610ec2565b505050565b60607f7804d923f43a17d325d77e781528e0793b2edd9890ab45fc64efd7b4b427744c6109d9816109d4611134565b61153a565b82600990805190602001906109ef929190612586565b80546109fa90613515565b80601f0160208091040260200160405190810160405280929190818152602001828054610a2690613515565b8015610a735780601f10610a4857610100808354040283529160200191610a73565b820191906000526020600020905b815481529060010190602001808311610a5657829003601f168201915b5050505050915050919050565b6000806002600084815260200190815260200160002060009054906101000a900473ffffffffffffffffffffffffffffffffffffffff169050600073ffffffffffffffffffffffffffffffffffffffff168173ffffffffffffffffffffffffffffffffffffffff161415610b29576040517f08c379a0000000000000000000000000000000000000000000000000000000008152600401610b20906130f1565b60405180910390fd5b80915050919050565b60007f9f2df0fed2c77648de5860a4cc508cd0818c85b8b8a1ab4ceeef8d981c8956a6610b6681610b61611134565b61153a565b600860009054906101000a900460ff16610bb5576040517f08c379a0000000000000000000000000000000000000000000000000000000008152600401610bac906131f1565b60405180910390fd5b610bbf600a61179a565b610bc985856117b0565b610bd384846117ce565b8473ffffffffffffffffffffffffffffffffffffffff16847f2169fca571ac413a2cd58ee7ce0947380b8aa3a5fc6dab5b6fcc5a5c14a2d3c085604051610c1a9190612faf565b60405180910390a3839150509392505050565b60098054610c3a90613515565b80601f0160208091040260200160405190810160405280929190818152602001828054610c6690613515565b8015610cb35780601f10610c8857610100808354040283529160200191610cb3565b820191906000526020600020905b815481529060010190602001808311610c9657829003601f168201915b505050505081565b60008073ffffffffffffffffffffffffffffffffffffffff168273ffffffffffffffffffffffffffffffffffffffff161415610d2c576040517f08c379a0000000000000000000000000000000000000000000000000000000008152600401610d23906130d1565b60405180910390fd5b600360008373ffffffffffffffffffffffffffffffffffffffff1673ffffffffffffffffffffffffffffffffffffffff168152602001908152602001600020549050919050565b6000610d7f600a611842565b905090565b7f7804d923f43a17d325d77e781528e0793b2edd9890ab45fc64efd7b4b427744c81565b60006007600084815260200190815260200160002060000160008373ffffffffffffffffffffffffffffffffffffffff1673ffffffffffffffffffffffffffffffffffffffff16815260200190815260200160002060009054906101000a900460ff16905092915050565b606060018054610e2290613515565b80601f0160208091040260200160405190810160405280929190818152602001828054610e4e90613515565b8015610e9b5780601f10610e7057610100808354040283529160200191610e9b565b820191906000526020600020905b815481529060010190602001808311610e7e57829003601f168201915b5050505050905090565b6000801b81565b610ebe610eb7611134565b8383611850565b5050565b610ed3610ecd611134565b836111f5565b610f12576040517f08c379a0000000000000000000000000000000000000000000000000000000008152600401610f09906131d1565b60405180910390fd5b610f1e848484846119bd565b50505050565b6060610f2f82611a19565b9050919050565b7f9f2df0fed2c77648de5860a4cc508cd0818c85b8b8a1ab4ceeef8d981c8956a681565b610f6382610856565b610f7481610f6f611134565b61153a565b610f7e83836116b8565b505050565b7f65d7a28e3265b37a6474929f336521b332c1681b933f6cb9f3376673440d862a81565b6000600560008473ffffffffffffffffffffffffffffffffffffffff1673ffffffffffffffffffffffffffffffffffffffff16815260200190815260200160002060008373ffffffffffffffffffffffffffffffffffffffff1673ffffffffffffffffffffffffffffffffffffffff16815260200190815260200160002060009054906101000a900460ff16905092915050565b600860009054906101000a900460ff1681565b60007f7965db0b000000000000000000000000000000000000000000000000000000007bffffffffffffffffffffffffffffffffffffffffffffffffffffffff1916827bffffffffffffffffffffffffffffffffffffffffffffffffffffffff191614806110c157506110c082611b6b565b5b9050919050565b60008073ffffffffffffffffffffffffffffffffffffffff166002600084815260200190815260200160002060009054906101000a900473ffffffffffffffffffffffffffffffffffffffff1673ffffffffffffffffffffffffffffffffffffffff1614159050919050565b600033905090565b816004600083815260200190815260200160002060006101000a81548173ffffffffffffffffffffffffffffffffffffffff021916908373ffffffffffffffffffffffffffffffffffffffff160217905550808273ffffffffffffffffffffffffffffffffffffffff166111af83610a80565b73ffffffffffffffffffffffffffffffffffffffff167f8c5be1e5ebec7d5bd14f71427d1e84f3dd0314c0f7b2291e5b200ac8c7c3b92560405160405180910390a45050565b6000611200826110c8565b61123f576040517f08c379a000000000000000000000000000000000000000000000000000000000815260040161123690613091565b60405180910390fd5b600061124a83610a80565b90508073ffffffffffffffffffffffffffffffffffffffff168473ffffffffffffffffffffffffffffffffffffffff1614806112b957508373ffffffffffffffffffffffffffffffffffffffff166112a184610659565b73ffffffffffffffffffffffffffffffffffffffff16145b806112ca57506112c98185610fa7565b5b91505092915050565b8273ffffffffffffffffffffffffffffffffffffffff166112f382610a80565b73ffffffffffffffffffffffffffffffffffffffff1614611349576040517f08c379a000000000000000000000000000000000000000000000000000000000815260040161134090613011565b60405180910390fd5b600073ffffffffffffffffffffffffffffffffffffffff168273ffffffffffffffffffffffffffffffffffffffff1614156113b9576040517f08c379a00000000000000000000000000000000000000000000000000000000081526004016113b090613051565b60405180910390fd5b6113c4838383611c4d565b6113cf60008261113c565b6001600360008573ffffffffffffffffffffffffffffffffffffffff1673ffffffffffffffffffffffffffffffffffffffff168152602001908152602001600020600082825461141f91906133f7565b925050819055506001600360008473ffffffffffffffffffffffffffffffffffffffff1673ffffffffffffffffffffffffffffffffffffffff16815260200190815260200160002060008282546114769190613316565b92505081905550816002600083815260200190815260200160002060006101000a81548173ffffffffffffffffffffffffffffffffffffffff021916908373ffffffffffffffffffffffffffffffffffffffff160217905550808273ffffffffffffffffffffffffffffffffffffffff168473ffffffffffffffffffffffffffffffffffffffff167fddf252ad1be2c89b69c2b068fc378daa952ba7f163c4a11628f55a4df523b3ef60405160405180910390a4611535838383611c52565b505050565b6115448282610da8565b6115d3576115698173ffffffffffffffffffffffffffffffffffffffff166014611c57565b6115778360001c6020611c57565b604051602001611588929190612ed8565b6040516020818303038152906040526040517f08c379a00000000000000000000000000000000000000000000000000000000081526004016115ca9190612faf565b60405180910390fd5b5050565b6115e18282610da8565b6116b45760016007600084815260200190815260200160002060000160008373ffffffffffffffffffffffffffffffffffffffff1673ffffffffffffffffffffffffffffffffffffffff16815260200190815260200160002060006101000a81548160ff021916908315150217905550611659611134565b73ffffffffffffffffffffffffffffffffffffffff168173ffffffffffffffffffffffffffffffffffffffff16837f2f8788117e7eff1d82e926ec794901d17c78024a50270940304540a733656f0d60405160405180910390a45b5050565b6116c28282610da8565b156117965760006007600084815260200190815260200160002060000160008373ffffffffffffffffffffffffffffffffffffffff1673ffffffffffffffffffffffffffffffffffffffff16815260200190815260200160002060006101000a81548160ff02191690831515021790555061173b611134565b73ffffffffffffffffffffffffffffffffffffffff168173ffffffffffffffffffffffffffffffffffffffff16837ff6391f5c32d9c69d2a47ea670b442974b53935d1edc7fd64eb21e047a839171b60405160405180910390a45b5050565b6001816000016000828254019250508190555050565b6117ca828260405180602001604052806000815250611e93565b5050565b6117d7826110c8565b611816576040517f08c379a000000000000000000000000000000000000000000000000000000000815260040161180d90613111565b60405180910390fd5b8060066000848152602001908152602001600020908051906020019061183d929190612586565b505050565b600081600001549050919050565b8173ffffffffffffffffffffffffffffffffffffffff168373ffffffffffffffffffffffffffffffffffffffff1614156118bf576040517f08c379a00000000000000000000000000000000000000000000000000000000081526004016118b690613071565b60405180910390fd5b80600560008573ffffffffffffffffffffffffffffffffffffffff1673ffffffffffffffffffffffffffffffffffffffff16815260200190815260200160002060008473ffffffffffffffffffffffffffffffffffffffff1673ffffffffffffffffffffffffffffffffffffffff16815260200190815260200160002060006101000a81548160ff0219169083151502179055508173ffffffffffffffffffffffffffffffffffffffff168373ffffffffffffffffffffffffffffffffffffffff167f17307eab39ab6107e8899845ad3d59bd9653f200f220920489ca2b5937696c31836040516119b09190612f79565b60405180910390a3505050565b6119c88484846112d3565b6119d484848484611eee565b611a13576040517f08c379a0000000000000000000000000000000000000000000000000000000008152600401611a0a90612ff1565b60405180910390fd5b50505050565b6060611a24826110c8565b611a63576040517f08c379a0000000000000000000000000000000000000000000000000000000008152600401611a5a90613151565b60405180910390fd5b6000600660008481526020019081526020016000208054611a8390613515565b80601f0160208091040260200160405190810160405280929190818152602001828054611aaf90613515565b8015611afc5780601f10611ad157610100808354040283529160200191611afc565b820191906000526020600020905b815481529060010190602001808311611adf57829003601f168201915b505050505090506000611b0d612085565b9050600081511415611b23578192505050611b66565b600082511115611b58578082604051602001611b40929190612eb4565b60405160208183030381529060405292505050611b66565b611b6184612117565b925050505b919050565b60007f80ac58cd000000000000000000000000000000000000000000000000000000007bffffffffffffffffffffffffffffffffffffffffffffffffffffffff1916827bffffffffffffffffffffffffffffffffffffffffffffffffffffffff19161480611c3657507f5b5e139f000000000000000000000000000000000000000000000000000000007bffffffffffffffffffffffffffffffffffffffffffffffffffffffff1916827bffffffffffffffffffffffffffffffffffffffffffffffffffffffff1916145b80611c465750611c45826121be565b5b9050919050565b505050565b505050565b606060006002836002611c6a919061339d565b611c749190613316565b67ffffffffffffffff811115611c8d57611c8c6136ae565b5b6040519080825280601f01601f191660200182016040528015611cbf5781602001600182028036833780820191505090505b5090507f300000000000000000000000000000000000000000000000000000000000000081600081518110611cf757611cf661367f565b5b60200101907effffffffffffffffffffffffffffffffffffffffffffffffffffffffffffff1916908160001a9053507f780000000000000000000000000000000000000000000000000000000000000081600181518110611d5b57611d5a61367f565b5b60200101907effffffffffffffffffffffffffffffffffffffffffffffffffffffffffffff1916908160001a90535060006001846002611d9b919061339d565b611da59190613316565b90505b6001811115611e45577f3031323334353637383961626364656600000000000000000000000000000000600f861660108110611de757611de661367f565b5b1a60f81b828281518110611dfe57611dfd61367f565b5b60200101907effffffffffffffffffffffffffffffffffffffffffffffffffffffffffffff1916908160001a905350600485901c945080611e3e906134eb565b9050611da8565b5060008414611e89576040517f08c379a0000000000000000000000000000000000000000000000000000000008152600401611e8090612fd1565b60405180910390fd5b8091505092915050565b611e9d8383612228565b611eaa6000848484611eee565b611ee9576040517f08c379a0000000000000000000000000000000000000000000000000000000008152600401611ee090612ff1565b60405180910390fd5b505050565b6000611f0f8473ffffffffffffffffffffffffffffffffffffffff16612402565b15612078578373ffffffffffffffffffffffffffffffffffffffff1663150b7a02611f38611134565b8786866040518563ffffffff1660e01b8152600401611f5a9493929190612f2d565b602060405180830381600087803b158015611f7457600080fd5b505af1925050508015611fa557506040513d601f19601f82011682018060405250810190611fa29190612a53565b60015b612028573d8060008114611fd5576040519150601f19603f3d011682016040523d82523d6000602084013e611fda565b606091505b50600081511415612020576040517f08c379a000000000000000000000000000000000000000000000000000000000815260040161201790612ff1565b60405180910390fd5b805181602001fd5b63150b7a0260e01b7bffffffffffffffffffffffffffffffffffffffffffffffffffffffff1916817bffffffffffffffffffffffffffffffffffffffffffffffffffffffff19161491505061207d565b600190505b949350505050565b60606009805461209490613515565b80601f01602080910402602001604051908101604052809291908181526020018280546120c090613515565b801561210d5780601f106120e25761010080835404028352916020019161210d565b820191906000526020600020905b8154815290600101906020018083116120f057829003601f168201915b5050505050905090565b6060612122826110c8565b612161576040517f08c379a000000000000000000000000000000000000000000000000000000000815260040161215890613191565b60405180910390fd5b600061216b612085565b9050600081511161218b57604051806020016040528060008152506121b6565b8061219584612425565b6040516020016121a6929190612eb4565b6040516020818303038152906040525b915050919050565b60007f01ffc9a7000000000000000000000000000000000000000000000000000000007bffffffffffffffffffffffffffffffffffffffffffffffffffffffff1916827bffffffffffffffffffffffffffffffffffffffffffffffffffffffff1916149050919050565b600073ffffffffffffffffffffffffffffffffffffffff168273ffffffffffffffffffffffffffffffffffffffff161415612298576040517f08c379a000000000000000000000000000000000000000000000000000000000815260040161228f90613131565b60405180910390fd5b6122a1816110c8565b156122e1576040517f08c379a00000000000000000000000000000000000000000000000000000000081526004016122d890613031565b60405180910390fd5b6122ed60008383611c4d565b6001600360008473ffffffffffffffffffffffffffffffffffffffff1673ffffffffffffffffffffffffffffffffffffffff168152602001908152602001600020600082825461233d9190613316565b92505081905550816002600083815260200190815260200160002060006101000a81548173ffffffffffffffffffffffffffffffffffffffff021916908373ffffffffffffffffffffffffffffffffffffffff160217905550808273ffffffffffffffffffffffffffffffffffffffff16600073ffffffffffffffffffffffffffffffffffffffff167fddf252ad1be2c89b69c2b068fc378daa952ba7f163c4a11628f55a4df523b3ef60405160405180910390a46123fe60008383611c52565b5050565b6000808273ffffffffffffffffffffffffffffffffffffffff163b119050919050565b6060600082141561246d576040518060400160405280600181526020017f30000000000000000000000000000000000000000000000000000000000000008152509050612581565b600082905060005b6000821461249f57808061248890613578565b915050600a82612498919061336c565b9150612475565b60008167ffffffffffffffff8111156124bb576124ba6136ae565b5b6040519080825280601f01601f1916602001820160405280156124ed5781602001600182028036833780820191505090505b5090505b6000851461257a5760018261250691906133f7565b9150600a8561251591906135c1565b60306125219190613316565b60f81b8183815181106125375761253661367f565b5b60200101907effffffffffffffffffffffffffffffffffffffffffffffffffffffffffffff1916908160001a905350600a85612573919061336c565b94506124f1565b8093505050505b919050565b82805461259290613515565b90600052602060002090601f0160209004810192826125b457600085556125fb565b82601f106125cd57805160ff19168380011785556125fb565b828001600101855582156125fb579182015b828111156125fa5782518255916020019190600101906125df565b5b509050612608919061260c565b5090565b5b8082111561262557600081600090555060010161260d565b5090565b600061263c61263784613271565b61324c565b905082815260208101848484011115612658576126576136e2565b5b6126638482856134a9565b509392505050565b600061267e612679846132a2565b61324c565b90508281526020810184848401111561269a576126996136e2565b5b6126a58482856134a9565b509392505050565b6000813590506126bc81613c73565b92915050565b6000813590506126d181613c8a565b92915050565b6000813590506126e681613ca1565b92915050565b6000813590506126fb81613cb8565b92915050565b60008151905061271081613cb8565b92915050565b600082601f83011261272b5761272a6136dd565b5b813561273b848260208601612629565b91505092915050565b600082601f830112612759576127586136dd565b5b813561276984826020860161266b565b91505092915050565b60008135905061278181613ccf565b92915050565b60006020828403121561279d5761279c6136ec565b5b60006127ab848285016126ad565b91505092915050565b600080604083850312156127cb576127ca6136ec565b5b60006127d9858286016126ad565b92505060206127ea858286016126ad565b9150509250929050565b60008060006060848603121561280d5761280c6136ec565b5b600061281b868287016126ad565b935050602061282c868287016126ad565b925050604061283d86828701612772565b9150509250925092565b60008060008060808587031215612861576128606136ec565b5b600061286f878288016126ad565b9450506020612880878288016126ad565b935050604061289187828801612772565b925050606085013567ffffffffffffffff8111156128b2576128b16136e7565b5b6128be87828801612716565b91505092959194509250565b600080604083850312156128e1576128e06136ec565b5b60006128ef858286016126ad565b9250506020612900858286016126c2565b9150509250929050565b60008060408385031215612921576129206136ec565b5b600061292f858286016126ad565b925050602061294085828601612772565b9150509250929050565b600080600060608486031215612963576129626136ec565b5b6000612971868287016126ad565b935050602061298286828701612772565b925050604084013567ffffffffffffffff8111156129a3576129a26136e7565b5b6129af86828701612744565b9150509250925092565b6000602082840312156129cf576129ce6136ec565b5b60006129dd848285016126d7565b91505092915050565b600080604083850312156129fd576129fc6136ec565b5b6000612a0b858286016126d7565b9250506020612a1c858286016126ad565b9150509250929050565b600060208284031215612a3c57612a3b6136ec565b5b6000612a4a848285016126ec565b91505092915050565b600060208284031215612a6957612a686136ec565b5b6000612a7784828501612701565b91505092915050565b600060208284031215612a9657612a956136ec565b5b600082013567ffffffffffffffff811115612ab457612ab36136e7565b5b612ac084828501612744565b91505092915050565b600060208284031215612adf57612ade6136ec565b5b6000612aed84828501612772565b91505092915050565b612aff8161342b565b82525050565b612b0e8161343d565b82525050565b612b1d81613449565b82525050565b6000612b2e826132d3565b612b3881856132e9565b9350612b488185602086016134b8565b612b51816136f1565b840191505092915050565b6000612b67826132de565b612b7181856132fa565b9350612b818185602086016134b8565b612b8a816136f1565b840191505092915050565b6000612ba0826132de565b612baa818561330b565b9350612bba8185602086016134b8565b80840191505092915050565b6000612bd36020836132fa565b9150612bde82613702565b602082019050919050565b6000612bf66032836132fa565b9150612c018261372b565b604082019050919050565b6000612c196025836132fa565b9150612c248261377a565b604082019050919050565b6000612c3c601c836132fa565b9150612c47826137c9565b602082019050919050565b6000612c5f6024836132fa565b9150612c6a826137f2565b604082019050919050565b6000612c826019836132fa565b9150612c8d82613841565b602082019050919050565b6000612ca5602c836132fa565b9150612cb08261386a565b604082019050919050565b6000612cc86038836132fa565b9150612cd3826138b9565b604082019050919050565b6000612ceb602a836132fa565b9150612cf682613908565b604082019050919050565b6000612d0e6029836132fa565b9150612d1982613957565b604082019050919050565b6000612d31602e836132fa565b9150612d3c826139a6565b604082019050919050565b6000612d546020836132fa565b9150612d5f826139f5565b602082019050919050565b6000612d776031836132fa565b9150612d8282613a1e565b604082019050919050565b6000612d9a602c836132fa565b9150612da582613a6d565b604082019050919050565b6000612dbd602f836132fa565b9150612dc882613abc565b604082019050919050565b6000612de06021836132fa565b9150612deb82613b0b565b604082019050919050565b6000612e036031836132fa565b9150612e0e82613b5a565b604082019050919050565b6000612e266011836132fa565b9150612e3182613ba9565b602082019050919050565b6000612e4960178361330b565b9150612e5482613bd2565b601782019050919050565b6000612e6c60118361330b565b9150612e7782613bfb565b601182019050919050565b6000612e8f602f836132fa565b9150612e9a82613c24565b604082019050919050565b612eae8161349f565b82525050565b6000612ec08285612b95565b9150612ecc8284612b95565b91508190509392505050565b6000612ee382612e3c565b9150612eef8285612b95565b9150612efa82612e5f565b9150612f068284612b95565b91508190509392505050565b6000602082019050612f276000830184612af6565b92915050565b6000608082019050612f426000830187612af6565b612f4f6020830186612af6565b612f5c6040830185612ea5565b8181036060830152612f6e8184612b23565b905095945050505050565b6000602082019050612f8e6000830184612b05565b92915050565b6000602082019050612fa96000830184612b14565b92915050565b60006020820190508181036000830152612fc98184612b5c565b905092915050565b60006020820190508181036000830152612fea81612bc6565b9050919050565b6000602082019050818103600083015261300a81612be9565b9050919050565b6000602082019050818103600083015261302a81612c0c565b9050919050565b6000602082019050818103600083015261304a81612c2f565b9050919050565b6000602082019050818103600083015261306a81612c52565b9050919050565b6000602082019050818103600083015261308a81612c75565b9050919050565b600060208201905081810360008301526130aa81612c98565b9050919050565b600060208201905081810360008301526130ca81612cbb565b9050919050565b600060208201905081810360008301526130ea81612cde565b9050919050565b6000602082019050818103600083015261310a81612d01565b9050919050565b6000602082019050818103600083015261312a81612d24565b9050919050565b6000602082019050818103600083015261314a81612d47565b9050919050565b6000602082019050818103600083015261316a81612d6a565b9050919050565b6000602082019050818103600083015261318a81612d8d565b9050919050565b600060208201905081810360008301526131aa81612db0565b9050919050565b600060208201905081810360008301526131ca81612dd3565b9050919050565b600060208201905081810360008301526131ea81612df6565b9050919050565b6000602082019050818103600083015261320a81612e19565b9050919050565b6000602082019050818103600083015261322a81612e82565b9050919050565b60006020820190506132466000830184612ea5565b92915050565b6000613256613267565b90506132628282613547565b919050565b6000604051905090565b600067ffffffffffffffff82111561328c5761328b6136ae565b5b613295826136f1565b9050602081019050919050565b600067ffffffffffffffff8211156132bd576132bc6136ae565b5b6132c6826136f1565b9050602081019050919050565b600081519050919050565b600081519050919050565b600082825260208201905092915050565b600082825260208201905092915050565b600081905092915050565b60006133218261349f565b915061332c8361349f565b9250827fffffffffffffffffffffffffffffffffffffffffffffffffffffffffffffffff03821115613361576133606135f2565b5b828201905092915050565b60006133778261349f565b91506133828361349f565b92508261339257613391613621565b5b828204905092915050565b60006133a88261349f565b91506133b38361349f565b9250817fffffffffffffffffffffffffffffffffffffffffffffffffffffffffffffffff04831182151516156133ec576133eb6135f2565b5b828202905092915050565b60006134028261349f565b915061340d8361349f565b9250828210156134205761341f6135f2565b5b828203905092915050565b60006134368261347f565b9050919050565b60008115159050919050565b6000819050919050565b60007fffffffff0000000000000000000000000000000000000000000000000000000082169050919050565b600073ffffffffffffffffffffffffffffffffffffffff82169050919050565b6000819050919050565b82818337600083830152505050565b60005b838110156134d65780820151818401526020810190506134bb565b838111156134e5576000848401525b50505050565b60006134f68261349f565b9150600082141561350a576135096135f2565b5b600182039050919050565b6000600282049050600182168061352d57607f821691505b6020821081141561354157613540613650565b5b50919050565b613550826136f1565b810181811067ffffffffffffffff8211171561356f5761356e6136ae565b5b80604052505050565b60006135838261349f565b91507fffffffffffffffffffffffffffffffffffffffffffffffffffffffffffffffff8214156135b6576135b56135f2565b5b600182019050919050565b60006135cc8261349f565b91506135d78361349f565b9250826135e7576135e6613621565b5b828206905092915050565b7f4e487b7100000000000000000000000000000000000000000000000000000000600052601160045260246000fd5b7f4e487b7100000000000000000000000000000000000000000000000000000000600052601260045260246000fd5b7f4e487b7100000000000000000000000000000000000000000000000000000000600052602260045260246000fd5b7f4e487b7100000000000000000000000000000000000000000000000000000000600052603260045260246000fd5b7f4e487b7100000000000000000000000000000000000000000000000000000000600052604160045260246000fd5b600080fd5b600080fd5b600080fd5b600080fd5b6000601f19601f8301169050919050565b7f537472696e67733a20686578206c656e67746820696e73756666696369656e74600082015250565b7f4552433732313a207472616e7366657220746f206e6f6e20455243373231526560008201527f63656976657220696d706c656d656e7465720000000000000000000000000000602082015250565b7f4552433732313a207472616e736665722066726f6d20696e636f72726563742060008201527f6f776e6572000000000000000000000000000000000000000000000000000000602082015250565b7f4552433732313a20746f6b656e20616c7265616479206d696e74656400000000600082015250565b7f4552433732313a207472616e7366657220746f20746865207a65726f2061646460008201527f7265737300000000000000000000000000000000000000000000000000000000602082015250565b7f4552433732313a20617070726f766520746f2063616c6c657200000000000000600082015250565b7f4552433732313a206f70657261746f7220717565727920666f72206e6f6e657860008201527f697374656e7420746f6b656e0000000000000000000000000000000000000000602082015250565b7f4552433732313a20617070726f76652063616c6c6572206973206e6f74206f7760008201527f6e6572206e6f7220617070726f76656420666f7220616c6c0000000000000000602082015250565b7f4552433732313a2062616c616e636520717565727920666f7220746865207a6560008201527f726f206164647265737300000000000000000000000000000000000000000000602082015250565b7f4552433732313a206f776e657220717565727920666f72206e6f6e657869737460008201527f656e7420746f6b656e0000000000000000000000000000000000000000000000602082015250565b7f45524337323155524953746f726167653a2055524920736574206f66206e6f6e60008201527f6578697374656e7420746f6b656e000000000000000000000000000000000000602082015250565b7f4552433732313a206d696e7420746f20746865207a65726f2061646472657373600082015250565b7f45524337323155524953746f726167653a2055524920717565727920666f722060008201527f6e6f6e6578697374656e7420746f6b656e000000000000000000000000000000602082015250565b7f4552433732313a20617070726f76656420717565727920666f72206e6f6e657860008201527f697374656e7420746f6b656e0000000000000000000000000000000000000000602082015250565b7f4552433732314d657461646174613a2055524920717565727920666f72206e6f60008201527f6e6578697374656e7420746f6b656e0000000000000000000000000000000000602082015250565b7f4552433732313a20617070726f76616c20746f2063757272656e74206f776e6560008201527f7200000000000000000000000000000000000000000000000000000000000000602082015250565b7f4552433732313a207472616e736665722063616c6c6572206973206e6f74206f60008201527f776e6572206e6f7220617070726f766564000000000000000000000000000000602082015250565b7f4d696e74696e6720697320706175736564000000000000000000000000000000600082015250565b7f416363657373436f6e74726f6c3a206163636f756e7420000000000000000000600082015250565b7f206973206d697373696e6720726f6c6520000000000000000000000000000000600082015250565b7f416363657373436f6e74726f6c3a2063616e206f6e6c792072656e6f756e636560008201527f20726f6c657320666f722073656c660000000000000000000000000000000000602082015250565b613c7c8161342b565b8114613c8757600080fd5b50565b613c938161343d565b8114613c9e57600080fd5b50565b613caa81613449565b8114613cb557600080fd5b50565b613cc181613453565b8114613ccc57600080fd5b50565b613cd88161349f565b8114613ce357600080fd5b5056fea264697066735822122045d5b7b3dce3e2d5254750296c292bf116a321c17d2a8ef3fedcf39fce6e824164736f6c63430008070033",
  "linkReferences": {},
  "deployedLinkReferences": {}
}